:020000040800F2
:1000000000000824790D0008850C0008870C000802
:10001000890C00088B0C00088D0C00080000000003
:100020000000000000000000000000008F0C00082D
:10003000910C000800000000930C0008950C0008CB
:10004000C90D0008C90D0008C90D0008C90D000838
:10005000C90D0008C90D0008C90D0008C90D000828
:10006000C90D0008C90D0008C90D0008C90D000818
:10007000C90D0008C90D0008C90D0008C90D000808
:10008000C90D0008C90D0008C90D00089D0C000825
:10009000C90D0008AD0C0008C90D0008C90D000805
:1000A000C90D0008C90D0008C90D0008C90D0008D8
:1000B000C90D0008C90D0008C90D0008C90D0008C8
:1000C000C90D0008C90D0008C90D0008C90D0008B8
:1000D000C90D0008C90D0008C90D0008C90D0008A8
:1000E000C90D0008C90D000800000000C90D000876
:1000F000C90D0008C90D0008C90D0008C90D000888
:10010000C90D0008C90D0008C90D0008C90D000877
:10011000C90D0008C90D0008C90D0008C90D000867
:10012000C90D0008C90D0008C90D0008C90D000857
:10013000C90D0008C90D0008C90D0008C90D000847
:1001400000000000000000000000000000000000AF
:10015000C90D0008C90D0008C90D0008C90D000827
:10016000C90D0008C90D0008C90D0008C90D000817
:10017000C90D0008C90D0008C90D000800000000E5
:10018000C90D0008C90D0008C90D0008C90D0008F7
:10019000C90D0008C90D0008C90D0008C90D0008E7
:1001A000C90D0008C90D0008C90D0008C90D0008D7
:1001B000C90D0008C90D0008C90D0008C90D0008C7
:1001C000C90D0008C90D0008C90D0008C90D0008B7
:1001D000C90D0008C90D0008C90D0008C90D0008A7
:1001E000C90D0008C90D0008C90D0008C90D000897
:1001F000C90D0008C90D0008C90D0008C90D000887
:10020000C90D0008C90D0008C90D0008C90D000876
:10021000C90D0008C90D0008C90D0008C90D000866
:10022000C90D0008C90D0008C90D00080000000034
:10023000C90D0008C90D000800000000C90D000824
:10024000C90D0008C90D0008C90D0008C90D000836
:10025000C90D0008C90D0008C90D0008C90D000826
:10026000C90D0008C90D0008C90D0008C90D000816
:10027000C90D0008C90D0008C90D000800000000E4
:10028000C90D0008C90D0008C90D000800000000D4
:0802900000000000C90D000888
:1002980010B5054C237833B9044B13B10448AFF3B8
:1002A80000800123237010BD3C04002400000000DE
:1002B800AC36000808B5034B1BB103490348AFF33C
:1002C800008008BD0000000040040024AC3600088F
:1002D80080F0004002E000BF81F0004142001FBFF3
:1002E8005FEA410392EA030F7FEA226C7FEA236CFC
:1002F8006AD04FEA1262D2EB1363C1BFD2184140F1
:1003080048404140B8BF5B42192B88BF704710F086
:10031800004F40F4000020F07F4018BF404211F029
:10032800004F41F4000121F07F4118BF494292EA91
:10033800030F3FD0A2F1010241FA03FC10EB0C00BD
:10034800C3F1200301FA03F100F0004302D549424A
:1003580060EB4000B0F5000F13D3B0F1807F06D3F7
:1003680040084FEA310102F10102FE2A51D2B1F1EF
:10037800004F40EBC25008BF20F0010040EA0300E4
:100388007047490040EB0000013A28BFB0F5000F64
:10039800EDD2B0FA80FCACF1080CB2EB0C0200FA1A
:1003A8000CF0AABF00EBC25052421843BCBFD04069
:1003B8001843704792F0000F81F4000106BF80F4E3
:1003C80000000132013BB5E74FEA41037FEA226CA6
:1003D80018BF7FEA236C21D092EA030F04D092F071
:1003E800000F08BF0846704790EA010F1CBF0020A5
:1003F800704712F07F4F04D1400028BF40F0004002
:10040800704712F100723CBF00F50000704700F021
:10041800004343F0FE4040F4000070477FEA226248
:1004280016BF08467FEA23630146420206BF5FEA19
:10043800412390EA010F40F4800070474FF0000319
:1004480004E000BF10F0004348BF40425FEA000CE0
:1004580008BF704743F0964301464FF000001CE088
:1004680050EA010208BF70474FF000030AE000BFDE
:1004780050EA010208BF704711F0004302D540421C
:1004880061EB41015FEA010C02BF8446014600208E
:1004980043F0B64308BFA3F18053A3F50003BCFAA9
:1004A8008CF2083AA3EBC25310DB01FA02FC634456
:1004B80000FA02FCC2F12002BCF1004F20FA02F25D
:1004C80043EB020008BF20F00100704702F1200250
:1004D80001FA02FCC2F1200250EA4C0021FA02F2B1
:1004E80043EB020008BF20EADC7070474FF0FF0CB6
:1004F8001CEAD0521EBF1CEAD15392EA0C0F93EAB1
:100508000C0F6FD01A4480EA010C400218BF5FEA52
:1005180041211ED04FF0006343EA501043EA5111C5
:10052800A0FB01310CF00040B1F5000F3EBF4900BF
:1005380041EAD3715B0040EA010062F17F02FD2AC3
:100548001DD8B3F1004F40EBC25008BF20F00100A6
:10055800704790F0000F0CF0004C08BF49024CEABD
:10056800502040EA51207F3AC2BFD2F1FF0340EA4F
:10057800C250704740F400004FF00003013A5DDCC0
:1005880012F1190FDCBF00F000407047C2F1000201
:10059800410021FA02F1C2F1200200FA02FC5FEAEE
:1005A800310040F1000053EA4C0308BF20EADC7038
:1005B800704792F0000F00F0004C02BF400010F4AA
:1005C800000F013AF9D040EA0C0093F0000F01F057
:1005D800004C02BF490011F4000F013BF9D041EA79
:1005E8000C018FE70CEAD15392EA0C0F18BF93EA7B
:1005F8000C0F0AD030F0004C18BF31F0004CD8D1A5
:1006080080EA010000F00040704790F0000F17BF2B
:1006180090F0004F084691F0000F91F0004F14D071
:1006280092EA0C0F01D142020FD193EA0C0F03D1C9
:100638004B0218BF084608D180EA010000F00040CC
:1006480040F0FE4040F40000704740F0FE4040F4A7
:10065800400070474FF0FF0C1CEAD0521EBF1CEA46
:10066800D15392EA0C0F93EA0C0F69D0A2EB030264
:1006780080EA010C49024FEA402037D04FF08053FE
:1006880043EA111143EA10130CF000408B4238BFC3
:100698005B0042F17D024FF4000C8B4224BF5B1AD1
:1006A80040EA0C00B3EB510F24BFA3EB510340EA1F
:1006B8005C00B3EB910F24BFA3EB910340EA9C00CD
:1006C800B3EBD10F24BFA3EBD10340EADC001B013D
:1006D80018BF5FEA1C1CE0D1FD2A3FF650AF8B42E1
:1006E80040EBC25008BF20F0010070470CF0004CEE
:1006F8004CEA50207F32C2BFD2F1FF0340EAC25019
:10070800704740F400004FF00003013A37E792F0D9
:10071800000F00F0004C02BF400010F4000F013A37
:10072800F9D040EA0C0093F0000F01F0004C02BF32
:10073800490011F4000F013BF9D041EA0C0195E79B
:100748000CEAD15392EA0C0F08D142027FF47DAF34
:1007580093EA0C0F7FF470AF084676E793EA0C0F24
:1007680004D14B023FF44CAF08466EE730F0004C22
:1007780018BF31F0004CCAD130F000427FF45CAFB2
:1007880031F000437FF43CAF5FE700BF42000ED278
:10079800B2F1FE4F0BD34FF09E03B3EB126209D4B4
:1007A8004FEA002343F0004323FA02F070474FF06A
:1007B8000000704712F1610F01D1420202D14FF0DF
:1007C800FF3070474FF00000704700BF844641EA91
:1007D800000313F003036DD1403A41D351F8043BB1
:1007E80040F8043B51F8043B40F8043B51F8043B03
:1007F80040F8043B51F8043B40F8043B51F8043BF3
:1008080040F8043B51F8043B40F8043B51F8043BE2
:1008180040F8043B51F8043B40F8043B51F8043BD2
:1008280040F8043B51F8043B40F8043B51F8043BC2
:1008380040F8043B51F8043B40F8043B51F8043BB2
:1008480040F8043B51F8043B40F8043B51F8043BA2
:1008580040F8043B51F8043B40F8043B403ABDD211
:10086800303211D351F8043B40F8043B51F8043BB3
:1008780040F8043B51F8043B40F8043B51F8043B72
:1008880040F8043B103AEDD20C3205D351F8043B42
:1008980040F8043B043AF9D2043208D0D2071CBF0E
:1008A80011F8013B00F8013B01D30B880380604637
:1008B800704700BF082A13D38B078DD010F00303AD
:1008C8008AD0C3F10403D21ADB071CBF11F8013B1D
:1008D80000F8013B80D331F8023B20F8023B7BE76C
:1008E800043AD9D3013A11F8013B00F8013BF9D297
:1008F8000B7803704B7843708B7883706046704731
:1009080030B589B0002403940494059406940794A0
:100918001F4BD3F8E02042F08002C3F8E020D3F860
:10092800E02002F080020092009AD3F8E02042F022
:100938000202C3F8E020D3F8E02002F0020201929C
:10094800019AD3F8E02042F00102C3F8E020D3F87E
:10095800E03003F001030293029B0E4D224603216F
:10096800284601F07CF90C23039304940124059490
:100978000DEB0301084801F057F80323039304948F
:100988000594069303A9284601F04EF809B030BD36
:100998000044025800040258001C025872B6FEE7D0
:1009A80008B51448144B036000238360C3600374C4
:1009B8004374837410224261012282610221C16161
:1009C800016242628262C262026343638363C363F9
:1009D8000364042242648364C264036542658365D8
:1009E800C36503664366826600F008FC00B908BD6B
:1009F800FFF7D4FFA404002400A0004000B59DB078
:100A08004C22002109A802F08BFD2022002101A818
:100A180002F086FD022001F029F900230093274BFC
:100A2800DA6A22F00102DA62DB6A03F0010300935A
:100A3800234A936923F4404343F4804393619369C1
:100A480003F440430093009B1D4B9B6913F4005F24
:100A5800FAD00223099301220C9240220D9212939C
:100A6800002213920422149209221592169303224B
:100A7800179218930C2219921A934FF440631B9300
:100A880009A801F01DF9A0B93F230193002302939F
:100A9800039304930593402206924FF480620792D1
:100AA8000893012101A801F071FD20B91DB05DF87E
:100AB80004FBFFF773FFFFF771FF00BF0004005846
:100AC8000048025830B583B000F0A4F9FFF796FF4C
:100AD8004FF4C87002F0F6FCFFF712FFFFF760FF53
:100AE8002EE0254B6A4693E8030082E80300234979
:100AF800234800F0CDFC08B9012528E0002526E0B0
:100B0800002202211F4801F0AAF81F4A6B4692E80A
:100B1800030083E803001D4A4021194800F0F4FC53
:100B280008B101241AE0002418E0012211461548F2
:100B380001F095F8D4B101220221124801F08FF892
:100B48000821134801F084F80028CAD0012504219F
:100B58000F4801F07DF80028D2D00124002DE4D1FF
:100B680000220121074801F07AF8E3E70022022178
:100B7800044801F074F8E3E7103700088004002403
:100B8800A40400240004025818370008580400245C
:100B9800001C025882B0074BD3F8F42042F002023E
:100BA800C3F8F420D3F8F43003F002030193019B57
:100BB80002B070470044025810B5B8B0044600218E
:100BC80033913491359136913791C02202A802F0C1
:100BD800A7FC2268264B9A4201D038B010BD4FF4CA
:100BE80000420023CDE902234FF080531E9302A850
:100BF80001F022FF002838D11E4BD3F8EC2042F434
:100C08008072C3F8EC20D3F8EC2002F480720092D2
:100C1800009AD3F8E02042F00102C3F8E020D3F8AC
:100C2800E03003F001030193019B4FF4C053339369
:100C380002233493012335930323369309233793EF
:100C480033A90D4800F0F0FE00221146132000F0F1
:100C580039F9132000F06CF900221146152000F034
:100C680031F9152000F064F9B7E7FFF797FEC3E7FD
:100C780000A000400044025800000258FEE7FEE7CA
:100C8800FEE7FEE7FEE770477047704708B500F0DB
:100C9800EFF808BD08B5024800F038FD08BD00BFF0
:100CA800A404002408B5024800F030FD08BD00BFC8
:100CB800A4040024244B1B6803F00F03062B06D85A
:100CC800214A136823F00F0343F0070313601F4BF7
:100CD8001A6842F001021A6000221A6119681C4A57
:100CE8000A401A60184B1B6813F0080F06D0164A02
:100CF800136823F00F0343F007031360134B00221C
:100D08009A61DA611A62134999621349D9621349DF
:100D180019635A639963DA6319645A64196821F488
:100D2800802119601A660E4B1A680E4B1340B3F1F6
:100D3800005F03D20C4B0122C3F808210B4B43F28E
:100D4800D2021A60704700BF0020005200440258C7
:100D58007FEDF6EA000202020000FF0180020101B5
:100D68000010005C0000FFFF0080005100400052AE
:100D7800DFF834D0FFF79EFF0C480D490D4A0023D9
:100D880002E0D458C4500433C4188C42F9D30A4A38
:100D98000A4C002301E013600432A242FBD302F0A4
:100DA8009BFBFFF78FFE704700000824000000241B
:100DB8003C040024503700083C040024500500245B
:100DC800FEE70000104B1B780BB90120704710B5E7
:100DD80004464FF47A70B0FBF3F30C4A1068B0FB8A
:100DE800F3F000F0B3F868B90F2C01D901200AE03C
:100DF800002221464FF0FF3000F064F8044B1C60DD
:100E0800002000E0012010BD08000024000000249C
:100E18000C00002410B5032000F042F801F0AAFAF3
:100E28000F498B69C3F303230E4AD35C03F01F03F6
:100E3800D8408B6903F00F03D35C03F01F0320FA3B
:100E480003F3094A1360094B18600F20FFF7BAFF34
:100E580010B10124204610BD0446FFF79BFEF9E7B8
:100E68000044025820370008040000240000002431
:100E7800034B1B78034A11680B441360704700BF8B
:100E88000800002444050024014B1868704700BF7F
:100E980044050024014B1868000C70470010005CE2
:100EA8000649CB6823F4E0631B041B0C000200F422
:100EB800E0600343024A1A43CA60704700ED00E04D
:100EC8000000FA0500B5174BDB68C3F30223C3F132
:100ED800070CBCF1040F28BF4FF0040C03F1040EFB
:100EE800BEF1060F14D9033B4FF0FF3E0EFA0CFC7F
:100EF80021EA0C0199400EFA03F322EA030319438D
:100F0800002807DB0901C9B2074B19545DF804FB37
:100F18000023E9E700F00F000901C9B2034B195497
:100F2800F4E700BF00ED00E000E400E014ED00E0AD
:100F3800002807DB00F01F02400901239340024A02
:100F480042F82030704700BF00E100E00138B0F1FE
:100F5800807F0BD24FF0E0235861054AF02182F8D8
:100F680023100020986107221A61704701207047FA
:100F780000ED00E0042806D04FF0E022136923F0CA
:100F88000403136170474FF0E022136943F0040330
:100F98001361704710B4446B0368D3F88410724A25
:100FA800114041EA8401C3F884100368D3F884101F
:100FB80021F47F01D0F838C041EA0C41C3F884100D
:100FC800836B23440468D4F88810114041EA8301F4
:100FD800C4F888100468D4F8881021F4FE01D0F809
:100FE8003CC041EA0C41C4F88810C16B03EB4103D3
:100FF8000468D4F8A010114041EA8301C4F8A01095
:101008000468D4F8A01021F4FE01D0F840C041EAE9
:101018000C41C4F8A010016C446C04FB0133046853
:10102800D4F8B010114041EA8301C4F8B010046844
:10103800D4F8B01021F4FE01D0F848C041EA0C41C0
:10104800C4F8B010816CC46C04FB01330468D4F894
:10105800AC10114041EA8301C4F8AC10016D446D35
:1010680004FB01330468D4F8F010114041EA83010D
:10107800C4F8F0100468D4F8F01021F47C11D0F80A
:1010880058C041EA0C41C4F8F010816D03EB4103EC
:101098000468D4F8C0100A4042EA8303C4F8C03098
:1010A8000268D2F8C03023F47C13C16D43EA0143CF
:1010B800C2F8C0300268D2F8C03023F07C53016E09
:1010C80043EA0163C2F8C030436B284A1A449200CD
:1010D800C266836B02EB83030367C16B03EBC10337
:1010E8004367016C446C04FB01F103EB81038367E4
:1010F800816CC46C04FB01F103EB8103C367016DD0
:10110800446D04FB01F103EB8103C0F88030816D6D
:1011180003EBC103C0F88430816EC46D01FB04FC8D
:1011280003EB8C03C0F88830046E04FB01F103EB79
:101138008103C0F890300E498B420DD9D0F89C300D
:1011480043F02003C0F89C30032380F89830012036
:1011580007E0002342F8043BD0F890309342F8D8D7
:10116800002010BC704700BF0300FFFF002B0010D9
:10117800FCD3004070B54C68F4B90D698C68254300
:101188000C6845EA84450E6ACC6944EA06648E69AF
:1011980034434E693443CE683443D0F88460806E5B
:1011A80000FB03F306EB830E46F82350CEF8044009
:1011B8000EF1080E002019E00C698D6825430C68B3
:1011C800254345F08045DEE702EB000C9CF8034020
:1011D8009CF802301B0443EA04639CF8014043EA8C
:1011E8000423145C23434EF8043B0430CB89024C9F
:1011F800E35C8342E8D870BD3037000830B595B05D
:1012080004464C22A04901A8FFF7E0FA002C00F0A0
:10121800388123689D4A934220D094F898300BB3C4
:101228002268936923F010039361FFF72DFE0546AA
:1012380023689A6912F0080F1AD0FFF725FE431B9E
:101248000A2BF5D9D4F89C3043F00103C4F89C303C
:10125800032384F89830012015B030BD03F580735E
:101268006360DAE784F899302046FFF7A5FCD7E7F2
:101278009A6942F001029A61FFF706FE0546236863
:101288009A6912F0010F0FD1FFF7FEFD401B0A28E3
:10129800F5D9D4F89C3043F00103C4F89C300323FB
:1012A80084F898300120D7E79A6942F002029A61DF
:1012B800237C012B40D02268936943F0400393615B
:1012C800637C012B3ED02268936923F480439361A9
:1012D800A37C012B3CD02268936943F4805393612B
:1012E8002268936923F44073A1680B4393612268D1
:1012F800936923F0A40393612268136923F0100310
:101308001361E368012B29D0002B2CD0022B00F0AD
:101318009B802268936943F0800393612268136974
:1013280043F010031361E368032B1CD1226893690F
:1013380043F02003936116E02268936923F0400389
:101348009361BDE72268936943F480439361BFE7E3
:101358002268936923F480539361C1E722689369F3
:1013680043F004039361A3695A1EE369013B1B021E
:1013780043EA4263226A013A13436269013A2168E7
:1013880043EA0243CB61A368B3F5407F62D0236E82
:1013980033B12268D2F8C030616E0B43C2F8C03056
:1013A800E36D226ED3420DD02168D1F8C83023F006
:1013B8000703A26E14A800EB820252F84C2C1343C8
:1013C800C1F8C830236C6BB12168D1F8BC3023F068
:1013D8000703626C14A800EB820252F84C2C1343EA
:1013E800C1F8BC30A36C73B12168D1F8BC3023F0CC
:1013F8007003E26C14A800EB820252F84C2C43EA0A
:101408000213C1F8BC30236D73B12168D1F8BC3028
:1014180023F4E063626D14A800EB820252F84C2CAE
:1014280043EA0223C1F8BC302268184B9A4222D002
:101438000023C4F89430C4F89C30012384F8983011
:101448002046FFF7A7FD07E72268936943F02003CA
:10145800936188E7A36A013BE26A013A43EA0223FF
:10146800226B013A43EA0213626A013A216843EAAD
:101478000243CB608BE76268936823F003039360B1
:10148800D6E70120E8E600BFC436000800A0004007
:1014980038B5044690F89830DBB2022B2BD103689C
:1014A800D3F8C00010F07C5F0CD0D3F8C40010F45F
:1014B800001F0FD0D4F89C3043F40073C4F89C305C
:1014C80001201FE0D4F89C3043F02003C4F89C307E
:1014D800012017E0D3F8C450C5F304452B46204635
:1014E800FFF748FE22680123AB40C2F8D030C4F8A9
:1014F8009430002006E0D0F89C3043F00803C0F890
:101508009C30012038BD000090F898C05FFA8CFC30
:10151800BCF1020F40F0DE8070B540290CD04129A3
:101528003BD0046D8C4269D8D0F89C3043F020033E
:10153800C0F89C300120BFE00468D4F8A05015F42E
:10154800FE0F0CD0D4F8A45015F07F0F0FD1D0F8AF
:101558009C3043F48073C0F89C300120ACE0D0F894
:101568009C3043F02003C0F89C300120A4E0D4F85C
:10157800A450C5F3006615F0807F02D0D4F8A050BF
:101588000026D4F8A440C4F305242644456F446CCF
:1015980006FB04F405EB840C37E00468D4F8B0507B
:1015A80015F4FE0F0CD0D4F8B45015F07F0F0FD1FE
:1015B800D0F89C3043F48073C0F89C3001207BE065
:1015C800D0F89C3043F02003C0F89C30012073E031
:1015D800D4F8B450C5F3006615F0807F02D0D4F873
:1015E800B0500026D4F8B440C4F305242644856FCF
:1015F800C46C06FB04F405EB840C06E0C56F446D6F
:1016080001FB04F405EB840C0026DCF8004004F030
:101618008044546074BBDCF80040C4F38A4414600E
:10162800DCF8004004F000549460DCF8004004F05A
:1016380000441461BCF80440D461DCF8044004F4AC
:101648007024D460DCF8044004F480145461DCF89D
:10165800044004F4001494619CF8074004F07F04EB
:101668001462DCF80440E40F54620CF1080E4FF0E9
:10167800000C0BE0DCF8004024F060441460CFE775
:101688001EF80C4003F80C400CF1010CD489154DE0
:101698002C5D6445F4D840290AD041290DD01F2972
:1016A8000FD80268012303FA01F1C2F8981002E08A
:1016B8000368C3F8A860002070BD0368C3F8B86069
:1016C800F9E701F01F010268012303FA01F1C2F8EA
:1016D8009C10F0E7D0F89C3043F00803C0F89C3029
:1016E80001207047303700087047704770477047CF
:1016F800704770477047704770477047704770472A
:101708007047704770477047704700002DE9F04FE9
:1017180083B00446B04B1A695B699B0703EA82737E
:10172800019303681A6D02F4704A5A6D0AEA020AB4
:101738001A6D02F00F095A6D09EA02091A6D02F0D2
:10174800F0085A6D08EA02081E6D06F071565A6DC7
:1017580016401F6D07F060775A6D17405D6DD3F81E
:1017680050B015F4807F02D01BF4807F64D115F44B
:10177800806F02D01BF4806F67D1019B002B74D15E
:10178800BAF1000F7CD1B9F1000F40F08580B8F1B3
:10179800000F40F08D8015F4006F03D01BF4006F2C
:1017A80040F0928015F4007F03D01BF4007F40F0D6
:1017B800968015F4002F03D01BF4002F40F09F8073
:1017C80015F4803F03D01BF4803F40F0A38015F44C
:1017D800802F03D01BF4802F40F0A78015F4003F22
:1017E8000FD01BF4003F0CD023684FF400321A6569
:1017F800794B00221A61D4F89C3043F08003C4F876
:101808009C30002F40F09C804EB123681E65B20FBB
:10181800714B1A61D4F89C301E43C4F89C6022684E
:101828006E4B9A4200F09680D4F89C30002B40F022
:10183800F78003B0BDE8F08F4FF480721A65664BED
:1018480000221A61FFF75AFF91E72368D3F8DC10EA
:10185800D3F8E4204FF4806018655F4B00201861CE
:1018680011402046FFF746FF87E7236800221A65E4
:1018780001998A0F584B1A612046FFF735FF7FE719
:101888002368C3F850A04FEA9A72534B1A61514625
:101898002046FFF72AFF76E72368C3F850904FEAFF
:1018A80099724D4B1A6149462046FFF71FFF6EE7B4
:1018B8002368C3F850804FEA9872474B1A61414633
:1018C8002046FFF714FF66E723684FF400621A65A5
:1018D800414B00221A612046FFF70AFF62E723689E
:1018E800D3F8D810D3F8E0204FF4007018653A4BBD
:1018F8000020186111402046FFF7FBFE59E72368D6
:101908004FF400221A65344B00221A612046FFF773
:10191800F2FE55E723684FF480321A652E4B0022F9
:101928001A612046FFF7E8FE51E723684FF480224A
:101938001A65294B00221A612046FFF7DEFE4DE7A3
:1019480023681F65BA0F244B1A6139462046FFF7F2
:10195800D7FE59E763689A6812F0030F3FF464AF43
:10196800196A01F00F015A6A186A00F03008586ABB
:1019780008EA00081F6A07F4C077586A07401E6A19
:1019880006F4FC46586A06401D6A05F4F025586AB4
:101998000540D3F82490D3F820A0114020D1B8F105
:1019A800000F22D119F0400F02D01AF0400F24D1B5
:1019B8007FBB36B163681E62D4F89C301E43C4F8FE
:1019C8009C60002D3FF430AF63681D62D4F89C30F2
:1019D8001D43C4F89C5027E700A8004000A0004021
:1019E80019622046FFF78DFED9E76368C3F82080A7
:1019F80041462046FFF786FED4E76368D96BDA6B69
:101A08004020186202F03F02090C2046FFF77BFED7
:101A1800CEE763681F6239462046FFF775FEC8E7C0
:101A28002046FFF76CFE04E770B582B000236EE035
:101A380085685E000324B44025EA0405CC68B440F8
:101A48002C438460446824EA0C0C4C68C4F30014EA
:101A58009C4044EA0C0444606CE0DD08083550F80A
:101A6800256003F007044FEA840C0F2404FA0CF4F1
:101A780026EA040E0C6904FA0CF444EA0E0440F851
:101A880025406FE0092400E0002404FA0EF42C43FA
:101A98000CF1020C6B4D45F82C404FF0B044256812
:101AA800D44325EA0206D1F804C01CF4801F01D0F3
:101AB80042EA05064FF0B0452E606D6804EA050657
:101AC800D1F804C01CF4001F01D042EA05064FF00B
:101AD800B0456E60D5F8845004EA0506D1F804C014
:101AE8001CF4003F01D042EA05064FF0B045C5F8A6
:101AF8008460D5F880502C404E6816F4803F01D0A1
:101B080042EA05044FF0B042C2F8804001330A6847
:101B180032FA03F400F093804FF0010C0CFA03FC46
:101B28001CEA0202F2D04C6804F00304013C012CC8
:101B38007FF67EAF4C6804F00304032C0CD0C46815
:101B48005D004FF0030C0CFA05FC24EA0C0C8C68C1
:101B5800AC4044EA0C04C4604C6804F00304022C52
:101B68003FF47BAF04684FEA430E4FF0030C0CFAC6
:101B78000EFC24EA0C0C4C6804F0030404FA0EF47E
:101B880044EA0C0404604C6814F4403FBED02E4C68
:101B9800D4F8F45045F00205C4F8F450D4F8F440F1
:101BA80004F002040194019C4FEA930C0CF1020525
:101BB800244C54F8255003F003044FEA840E0F24F4
:101BC80004FA0EF425EA0405204CA0423FF45CAF69
:101BD80004F58064A04222D004F58064A04220D09D
:101BE80004F58064A0421ED004F58064A0421CD095
:101BF80004F58064A0421AD004F58064A04218D08D
:101C080004F58064A04216D004F58064A04214D084
:101C180004F58064A0423FF435AF0A2435E7012477
:101C280033E7022431E703242FE704242DE70524B2
:101C38002BE7062429E7072427E7082425E702B02D
:101C480070BD00BF0004005800440258000002584C
:101C58000369194201D001207047002070470AB17A
:101C6800816170470904816170470000134BDB688C
:101C780013F0040F07D1114BDB6803F0070383420D
:101C88001AD00120704710B50C4AD36823F0070317
:101C98001843D060FFF7F8F80446084B5B6813F464
:101CA800005F07D1FFF7F0F8001BB0F57A7FF4D991
:101CB800012000E0002010BD0020704700480258B5
:101CC800002800F0398338B50446036813F0010F83
:101CD80025D0944A136903F03803926A102B15D063
:101CE800182B0FD06368B3F5803F3FD0002B53D13A
:101CF8008C4B1A6822F480321A601A6822F4802207
:101D08001A6038E002F00302022AEBD1854B1B6807
:101D180013F4003F03D06368002B00F00F8323689F
:101D280013F0020F00F0A1807E4A1369926A13F043
:101D380038035AD0182B55D0E368002B00F0DE800A
:101D480078490A6822F0190213430B60FFF79CF8E0
:101D58000546744B1B6813F0040F40F0AD80FFF785
:101D680093F8401B0228F4D90320EEE26D4A136869
:101D780043F48033136063682BB3FFF785F8054697
:101D8800684B1B6813F4003FC9D1FFF77DF8401B6F
:101D98006428F5D90320D8E2B3F5A02F09D0614B08
:101DA8001A6822F480321A601A6822F480221A60B3
:101DB800E1E75C4B1A6842F480221A601A6842F420
:101DC80080321A60D7E7FFF75FF80546554B1B6866
:101DD80013F4003FA3D0FFF757F8401B6428F5D948
:101DE8000320B2E212F0030FA6D14E4B1B6813F08A
:101DF800040F03D0E368002B00F0A282494A13685D
:101E080023F01903E1680B431360FFF73DF805461B
:101E1800444B1B6813F0040F06D1FFF735F8401B3D
:101E28000228F5D9032090E2FFF734F841F20303C2
:101E3800984212D82269402A07D03A494B6823F4BD
:101E48007C3343EA02334B600FE0364A536823F48D
:101E58007C3343F40033536007E0324A536823F07D
:101E6800FE43216943EA01635360236813F0100FAE
:101E780000F088802B4A136903F03803926A082B14
:101E880056D0182B50D0E369002B00F0B880254AB3
:101E9800136843F080031360FEF7F6FF0546214BF5
:101EA8001B6813F4807F40F08880FEF7EDFF401B2D
:101EB8000228F4D9032048E2FEF7ECFF41F20303BD
:101EC800984212D82269402A07D016494B6823F451
:101ED8007C3343EA02334B60C7E7124A536823F462
:101EE8007C3343F400335360BFE70E4A536823F052
:101EF800FE43216943EA01635360B6E7094A136860
:101F080023F001031360FEF7BFFF0546054B1B686E
:101F180013F0040FA9D0FEF7B7FF401B0228F5D92C
:101F2800032012E20044025802F00302012AAAD157
:101F3800A14B1B6813F4807F03D0E369802B40F02A
:101F48000182FEF7A7FF41F20303984212D8226AE2
:101F5800202A07D098494B6823F0F84343EA826364
:101F68004B600FE0944A536823F0F84343F08043F2
:101F7800536007E0904AD36823F07C53216A43EA10
:101F88000163D360236813F0080F60D06369002BE6
:101F980049D0894A536F43F001035367FEF774FF32
:101FA8000546854B5B6F13F0020F50D1FEF76CFFAF
:101FB800401B0228F5D90320C7E1FEF76BFF41F269
:101FC8000303984212D8226A202A07D07A494B681C
:101FD80023F0F84343EA82634B60D3E7764A5368B9
:101FE80023F0F84343F080435360CBE7724AD36849
:101FF80023F07C53216A43EA0163D360C2E76E4A47
:10200800136823F080031360FEF73EFF05466A4B12
:102018001B6813F4807FB5D0FEF736FF401B0228FB
:10202800F5D9032091E1644A536F23F00103536704
:10203800FEF72AFF0546604B5B6F13F0020F06D0D0
:10204800FEF722FF401B0228F5D903207DE1236813
:1020580013F0200F29D0A3699BB1574A136843F4A2
:1020680080531360FEF710FF0546534B1B6813F4AB
:10207800005F1AD1FEF708FF401B0228F5D903209C
:1020880063E14D4A136823F480531360FEF7FCFEA6
:102098000546494B1B6813F4005F06D0FEF7F4FEB3
:1020A800401B0228F5D903204FE1236813F0040FE1
:1020B80021D1636A002B00F047813F4A126902F080
:1020C8003802182A00F0EE80022B79D03A4A1368B9
:1020D80023F080731360FEF7D7FE0446364B1B6867
:1020E80013F0007F00F0DC80FEF7CEFE001B022814
:1020F800F4D9032029E1314A136843F4807313604B
:10210800FEF7C2FE05462D4B1B6813F4807F06D1EF
:10211800FEF7BAFE401B6428F5D9032015E1A36831
:10212800012B0AD00BBB244B1A6F22F001021A674D
:102138001A6F22F004021A6704E01F4A136F43F073
:1021480001031367A36833B3FEF79EFE05461A4BD7
:102158001B6F13F0020FACD1FEF796FE401B41F245
:1021680088339842F3D90320EFE0052B09D0124BAE
:102178001A6F22F001021A671A6F22F004021A6716
:10218800E0E70D4B1A6F42F004021A671A6F42F02B
:1021980001021A67D6E7FEF777FE0546064B1B6F66
:1021A80013F0020F85D0FEF76FFE401B41F2883313
:1021B8009842F3D90320C8E0004402580048025866
:1021C800694A136823F080731360FEF75DFE0546C5
:1021D800654B1B6813F0007F06D0FEF755FE401BC9
:1021E8000228F5D90320B0E05F4B996A5F4A0A409C
:1021F800A16AE06A41EA00110A439A62226B013A35
:10220800C2F30802616B0139490289B20A43A16B22
:102218000139090401F4FE010A43E16B0139090699
:1022280001F0FE410A431A63DA6A22F00102DA6217
:10223800596B4F4A0A40A16C42EAC1025A63DA6AF2
:1022480022F00C02216C0A43DA62DA6A22F00202F6
:10225800616C0A43DA62DA6A42F48032DA62DA6A74
:1022680042F40032DA62DA6A42F48022DA62DA6A26
:1022780042F00102DA621A6842F080721A60FEF7D0
:1022880003FE0446384B1B6813F0007F06D1FEF7A7
:10229800FBFD001B0228F5D9032056E0002054E07E
:1022A800002052E0304A916A106B012B4ED001F0A9
:1022B8000303A26A93424BD1C1F30511E36A994221
:1022C80048D1C0F30802236B013B9A4244D1C0F3C2
:1022D8004622636B013B9A4240D1C0F30642A36B8E
:1022E800013B9A423CD1C0F30660E36B013B984244
:1022F80038D11D4B5B6BC3F3CC03A26C9A4201D15E
:10230800002022E0184AD36A23F00103D362FEF7C3
:10231800BBFD0546FEF7B8FDA842FBD0124A516B3B
:10232800134B0B40A16C43EAC1035363D36A43F0D8
:102338000103D362002008E001207047012004E077
:10234800012002E0012000E0002038BD0120FCE768
:102358000120FAE70120F8E70120F6E70120F4E779
:102368000120F2E70120F0E7004402580CFCFFFFCF
:102378000700FFFFF8B57E4B1B6903F03803102BED
:1023880000F0F280182B10D013B17A4C2046F8BD1B
:10239800774B1B6813F0200F00F0E880744B186827
:1023A800C0F3C100744CC440F0E7714B9D6A05F05E
:1023B80003059C6AC4F30514D86A00F001005B6B3E
:1023C800C3F3CC0303FB00F0FEF738F80646002CF5
:1023D800DCD0012D76D0022D00F0A4800DB320466C
:1023E800FEF72CF801466548FEF734F90446604BC1
:1023F800186BC0F30800FEF721F805464FF064514A
:102408003046FEF773F801462846FDF767FF4FF0A0
:102418007E51FDF763FF01462046FEF767F8044644
:1024280071E0534B1B6813F0200F29D0504F3B68C5
:10243800C3F3C1035048D840FEF700F805462046CC
:10244800FDF7FCFF01462846FEF704F90446386B01
:10245800C0F30800FDF7F2FF05464FF0645130461F
:10246800FEF744F801462846FDF738FF4FF07E5145
:10247800FDF734FF01462046FEF738F8044642E0EF
:102488002046FDF7DBFF01463D48FEF7E3F804462A
:10249800374B186BC0F30800FDF7D0FF05464FF027
:1024A80064513046FEF722F801462846FDF716FF2C
:1024B8004FF07E51FDF712FF01462046FEF716F851
:1024C800044620E02046FDF7B9FF01462B48FEF7F9
:1024D800C1F80446264B186BC0F30800FDF7AEFFA1
:1024E80005464FF064513046FEF700F8014628468D
:1024F800FDF7F4FE4FF07E51FDF7F0FE0146204651
:10250800FDF7F4FF04461A4B1B6BC3F34623581C14
:10251800FDF794FF01462046FEF79CF8FEF736F9D2
:10252800044633E72046FDF789FF01461548FEF7C4
:1025380091F804460E4B186BC0F30800FDF77EFFB8
:1025480005464FF064513046FDF7D0FF0146284656
:10255800FDF7C4FE4FF07E51FDF7C0FE0146204650
:10256800FDF7C4FF0446CEE7074C0FE7024C0DE722
:102578000044025800093D000090D0030024744A2A
:102588000024744C20BCBE4B40787D01002800F02C
:10259800328170B50D4604469B4B1B6803F00F0350
:1025A8008B420BD2984A136823F00F030B43136036
:1025B800136803F00F038B4240F01F81236813F068
:1025C800040F0CD02269914B9B6903F070039A4267
:1025D80005D98E498B6923F070031A438A612368F1
:1025E80013F0080F0CD06269884BDB6903F07003A5
:1025F8009A4205D98549CB6923F070031A43CA6109
:10260800236813F0100F0CD0A269804BDB6903F428
:10261800E0639A4205D97D49CB6923F4E0631A4304
:10262800CA61236813F0200F0CD0E269774B1B6A4C
:1026380003F070039A4205D974490B6A23F07003BA
:102648001A430A62236813F0020F0CD0E2686F4B3A
:102658009B6903F00F039A4205D96C498B6923F0F3
:102668000F031A438A61236813F0010F41D0674AA8
:10267800936923F47063A1680B4393616368022B29
:102688000AD0032B27D0012B2CD0604A126812F0F5
:10269800040F06D10120ADE0126812F4003F00F0EB
:1026A800AE805A490A6922F0070213430B61FEF70C
:1026B800EBFB0646554B1B6903F038036268B3EB26
:1026C800C20F16D0FEF7E0FB801B41F28833984218
:1026D800F0D903208EE04D4A126812F0007FE0D155
:1026E800012087E0494A126812F4807FD9D101207D
:1026F80080E0236813F0020F0CD0E268434B9B691B
:1027080003F00F039A4205D240498B6923F00F0367
:102718001A438A613C4B1B6803F00F03AB420AD98A
:10272800394A136823F00F032B431360136803F02F
:102738000F03AB4265D1236813F0040F0CD0226954
:10274800324B9B6903F070039A4205D22F498B697B
:1027580023F070031A438A61236813F0080F0CD022
:1027680062692A4BDB6903F070039A4205D2274954
:10277800CB6923F070031A43CA61236813F0100F62
:102788000CD0A269214BDB6903F4E0639A4205D2BD
:102798001E49CB6923F4E0631A43CA61236813F026
:1027A800200F0CD0E269194B1B6A03F070039A42A0
:1027B80005D216490B6A23F070031A430A62FFF721
:1027C800D9FD12498B69C3F30323114AD35C03F083
:1027D8001F03D8408B6903F00F03D35C03F01F037A
:1027E80020FA03F30B4A13600B4B18600B4B186865
:1027F800FEF7E8FA70BD012070470120FAE70120D2
:10280800F8E70120F6E700BF002000520044025814
:102818002037000804000024000000240C000024D5
:10282800404B9B6A03F00303032B79D070B5054630
:102838000E463C4A136823F080631360FEF724FBBE
:102848000446384B1B6813F0006F06D0FEF71CFBDC
:10285800031B022BF5D9032070BD324B9A6A22F470
:102868007C32296842EA01329A626A68013AC2F304
:102878000802A9680139490289B20A43E96801399D
:10288800090401F4FE010A4329690139090601F026
:10289800FE410A439A63DA6A22F0C00269690A4370
:1028A800DA62DA6A22F02002A9690A43DA62DA6A8D
:1028B80022F01002DA62D96B1B4A0A40E96942EA3F
:1028C800C102DA63DA6A42F01002DA62C6B91A465D
:1028D800DB6A43F40023D362124A136843F080632F
:1028E8001360FEF7D1FA04460E4B1B6813F0006F15
:1028F80014D1FEF7C9FA001B0228F5D90320ABE76B
:10290800012E05D0074AD36A43F40013D362E3E7E4
:10291800044AD36A43F48013D362DDE700209BE7BF
:1029280001207047004402580700FFFF404B9B6A94
:1029380003F00303032B79D070B505460E463C4AD5
:10294800136823F080531360FEF79EFA0446384B51
:102958001B6813F0005F06D0FEF796FA031B022BE4
:10296800F5D9032070BD324B9A6A22F07C7229682F
:1029780042EA01529A626A68013AC2F30802A968F7
:102988000139490289B20A43E9680139090401F4A5
:10299800FE010A4329690139090601F0FE410A438B
:1029A8001A64DA6A22F4406269690A43DA62DA6A06
:1029B80022F40072A9690A43DA62DA6A22F48072A0
:1029C800DA62596C1B4A0A40E96942EAC1025A6450
:1029D800DA6A42F48072DA62C6B91A46DB6A43F4EC
:1029E8008003D362124A136843F080531360FEF7E2
:1029F8004BFA04460E4B1B6813F0005F14D1FEF728
:102A080043FA001B0228F5D90320ABE7012E05D0B5
:102A1800074AD36A43F08073D362E3E7044AD36A70
:102A280043F40003D362DDE700209BE701207047F1
:102A3800004402580700FFFFF8B50446036813F086
:102A4800006F30D0836EB3F5001F26D00ED8EBB1DF
:102A5800B3F5801F07D102210830FFF7E1FE0546D4
:102A680045B12E4621E0012635461EE0B3F5401F4C
:102A780009D10025984A136D23F44013A16E0B4326
:102A88001365002611E0012635460EE0924AD36A06
:102A980043F40033D3620025ECE702212830FFF726
:102AA80045FF0546DCE700263546236813F4807F9A
:102AB80014D0A36D042B32D8DFE803F003232A08CF
:102AC8000800854AD36A43F40033D36255BB824A6F
:102AD800136D23F00703A16D0B431365236813F4EB
:102AE800007F31D0E36D802B4CD020D8002B43D011
:102AF800402B19D1002104F10800FFF791FE05468B
:102B08001AE0002104F10800FFF78AFE0546DDE718
:102B1800002104F12800FFF709FF0546D6E7012642
:102B28003546DBE72E46D9E7012635460CE0C02BB3
:102B380002D0B3F5807F1CD15DBB674A136D23F4C7
:102B4800E073E16D0B431365236813F4806F46D07F
:102B5800D4F8A830B3F5800F39D01FD88BB3B3F5AC
:102B6800001F18D1002104F10800FFF759FE05469F
:102B78001AE001263546E7E7574AD36A43F400339B
:102B8800D362D9E7002104F12800FFF7CFFE0546FC
:102B9800D2E72E46D8E70126354620E0B3F5C00F28
:102BA80002D0B3F5000F09D1C5B94B4A936D23F490
:102BB8006003D4F8A8100B43936510E0012635464E
:102BC8000DE0454AD36A43F40033D362ECE70021B1
:102BD80004F12800FFF7AAFE0546E5E72E4623681C
:102BE80013F4006F24D0D4F8AC30B3F1007F42D096
:102BF8000ED8002B39D0B3F1807F06D1002104F123
:102C08000800FFF70DFE054608E0012635460FE0EF
:102C1800B3F1407F02D0B3F1806F23D1002D31D1C1
:102C28002D4A936D23F0E063D4F8AC100B43936501
:102C3800236813F0007F2ED0E36C202B40D026D8D9
:102C480033B1102B20D1244AD36A43F40033D36222
:102C5800002D3CD1204AD36C23F03003E16C0B43A8
:102C6800D36418E001263546E2E71B4AD36A43F4E9
:102C78000033D362D2E7002104F12800FFF756FEA3
:102C88000546CBE72E46D3E70126354603E0302B31
:102C9800DED001263546236813F4805F2DD0236EDD
:102CA800B3F5005F4FD019D8002B46D0B3F5805F3D
:102CB8000FD1002104F10800FFF7B2FD054613E02B
:102CC800022104F10800FFF7ABFD0546C0E72E46D8
:102CD800E1E70126354610E000440258B3F5405FAD
:102CE80002D0B3F5804F25D1002D33D1774A136D2B
:102CF80023F4E043216E0B431365236813F4005F4C
:102D080038D0636EB3F5003F53D028D843B1B3F53C
:102D1800803F21D1012104F10800FFF781FD05461C
:102D2800002D4DD1694A136D23F4E023616E0B43E6
:102D380013651FE001263546DFE7644AD36A43F48A
:102D48000033D362D0E7002104F12800FFF7EEFD3D
:102D58000546C9E72E46D0E7012635460AE0B3F511
:102D6800802FDDD0B3F5A02FDAD0B3F5403FD7D010
:102D780001263546236813F4804F31D0D4F8B0309B
:102D8800B3F1005F45D020D843B1B3F1805F19D1CA
:102D9800012104F10800FFF743FD0546002D3FD14E
:102DA8004A4A936D23F0E043D4F8B0100B4393657F
:102DB80016E0012104F12800FFF7B8FD0546AFE74A
:102DC8002E46D7E7012635460AE0B3F1804FE5D015
:102DD800B3F1A04FE2D0B3F1405FDFD00126354612
:102DE800236813F4004F09D0236FB3F1805F19D023
:102DF800B3F1005F24D0D3B101263546236813F020
:102E0800807F33D0A36C032B5BD8DFE803F0272245
:102E18005327012104F12800FFF788FD0546BDE787
:102E28002E46DDE7294AD36A43F40033D36275B9E5
:102E3800264A136D23F04053216F0B431365DDE7DA
:102E4800012104F10800FFF7EBFC0546EFE72E46E9
:102E5800D4E71E4AD36A43F40033D362A5BB1B4AA6
:102E6800D36C23F00303A16C0B43D364236813F4DE
:102E7800800F2DD1236813F0010F00F0A580E36FB8
:102E8800282B00F29F80DFE803F08D9D9D9D9D9D7E
:102E98009D9D879D9D9D9D9D9D9D969D9D9D9D9D77
:102EA8009D9D8D9D9D9D9D9D9D9D8D9D9D9D9D9D6A
:102EB8009D9D8D00022104F10800FFF7B1FC054635
:102EC800CCE701263546D1E72E46CFE70044025825
:102ED800914A136843F480731360FDF7D5FF0746E2
:102EE8008D4B1B6813F4807F05D1FDF7CDFFC01B08
:102EF8006428F5D90325002D4AD1884B1B6FD4F8D7
:102F0800B420534013F4407F0CD0844B1A6F22F442
:102F18004072196F41F480311967196F21F48031BB
:102F280019671A67D4F8B430B3F5807F15D08DBB14
:102F3800D4F8B43003F44072B2F5407F1ED0774A1B
:102F4800136923F47C53136174490B6FD4F8B420CC
:102F5800C2F30B0213430B678CE7FDF795FF074697
:102F68006E4B1B6F13F0020FE1D1FDF78DFFC01BF5
:102F780041F288339842F3D90325D8E767480269B4
:102F880022F47C52664901EA131313430361DBE719
:102F98002E466FE72E466DE7012104F10800FFF782
:102FA8003FFC0546E5B95D4A536D23F03803E16FF0
:102FB8000B43536508E0012104F12800FFF7B6FC34
:102FC8000546EFE701263546236813F0020F17D0B0
:102FD800A36F052B28D8DFE803F00B05200B0B0B9C
:102FE8002E46F1E7012104F10800FFF719FC054618
:102FF800EDB94A4A536D23F00703A16F0B4353659C
:10300800236813F0040F23D0D4F89430052B45D847
:10301800DFE803F0150F3D151515012104F128000F
:10302800FFF784FC0546E3E701263546E8E72E4628
:10303800E6E7012104F10800FFF7F2FB054685BB2E
:10304800364A936D23F00703D4F894100B43936525
:10305800236813F0200F34D0D4F89030B3F1005F18
:103068004ED023D843B1B3F1805F1CD1002104F1C5
:103078000800FFF7D5FB0546002D48D1274A536DB8
:1030880023F0E043D4F890100B43536519E0012175
:1030980004F12800FFF74AFC0546D0E7012635462B
:1030A800D6E72E46D4E7012635460AE0B3F1804F2D
:1030B800E2D0B3F1A04FDFD0B3F1405FDCD00126FE
:1030C8003546236813F0400F37D0D4F89C30B3F559
:1030D800006F53D026D843B1B3F5806F19D10021C2
:1030E80004F10800FFF79CFB0546002D4DD10B4A63
:1030F800936D23F4E053D4F89C100B4393651CE0C4
:10310800022104F12800FFF711FC0546B4E72E461A
:10311800D7E70126354610E0004802580044025817
:10312800CFFFFF00B3F5805FDFD0B3F5A05FDCD041
:10313800B3F5406FD9D001263546236813F0800FC8
:1031480033D0D4F8A030B3F5804F00F0A38021D855
:1031580043B1B3F5005F1AD1002104F10800FFF76D
:103168005FFB0546002D40F09C80814A936D23F457
:103178006043D4F8A0100B43936516E0022104F1D4
:103188002800FFF7D3FB0546AFE72E46D5E7012613
:1031980035460AE0B3F5004FE4D0B3F5204FE1D04F
:1031A800B3F5C04FDED001263546236813F0080F6B
:1031B8000CD0D4F88430B3F5805F74D06C4A536D6A
:1031C80023F44053D4F884100B435365236813F059
:1031D800100F0CD0D4F89830B3F5807F6CD0644AC7
:1031E800936D23F44073D4F898100B4393652368C8
:1031F80013F4002F0BD0D4F8A430B3F5803F74D06B
:10320800B3F5003F67D0002B5FD001263546236811
:1032180013F4802F0CD0D4F88830B3F5001F7CD07D
:10322800B3F5401F6FD0B3F5801F67D00126354630
:10323800236813F4803F08D0236D002B76D0B3F5B4
:10324800803F00F0818001263546236813F0005F37
:1032580040F08380236813F4003F00F08E80D4F898
:103268008030B3F5807F00F0EC8040F28380B3F5C6
:10327800007F03D0B3F5407F40F0E180002D40F09F
:10328800E6803B4A536D23F44073D4F880100B4317
:10329800536572E0022104F12800FFF747FB054659
:1032A80060E72E4681E7022104F12800FFF73EFB84
:1032B800002883D0012681E7022104F12800FFF7C6
:1032C80035FB00288BD0012689E7002104F108008E
:1032D800FFF7A6FA05467DB9254A936D23F44033D6
:1032E800D4F8A4100B43936591E7022104F1280058
:1032F800FFF71CFB0546EEE72E4688E71C4AD36A13
:1033080043F40033D3627DB9194A536D23F4401353
:10331800D4F888100B4353658AE7012104F128008B
:10332800FFF704FB0546EEE72E4681E7104AD36A0D
:1033380043F40033D36275B90D4AD36C23F4803358
:10334800216D0B43D36480E7022104F10800FFF7E5
:1033580067FA0546EFE72E4677E7022104F12800D1
:10336800FFF7E4FA00283FF475AF012672E700BFC3
:1033780000440258002B81D00126236813F4801FD3
:1033880006D04F4A136D23F00043616F0B4313655A
:10339800236813F0805F07D0494A136923F48043F8
:1033A800D4F8B8100B431361236813F4001F06D038
:1033B800434A136D23F08073E16E0B431365236852
:1033C80013F0804F09D03E4B1A6922F400421A616B
:1033D8001A69D4F8BC100A431A612368002B06DA6C
:1033E800374AD36C23F04053616D0B43D364236891
:1033F80013F4000F07D0324A536D23F44003D4F876
:103408008C100B435365636813F0010F21D1636877
:1034180013F0020F26D1636813F0040F2BD16368F1
:1034280013F0080F30D1636813F0100F35D16368BB
:1034380013F0200F3AD106B101263046F8BD012617
:103448009BE71F4AD36A43F40033D36216E72E463C
:1034580093E7002104F10800FFF7E2F90028D6D02D
:103468000646D4E7012104F10800FFF7D9F900283E
:10347800D1D00646CFE7022104F10800FFF7D0F9C2
:103488000028CCD00646CAE7002104F12800FFF73F
:103498004DFA0028C7D00646C5E7012104F12800E7
:1034A800FFF744FA0028C2D00646C0E7022104F11B
:1034B8002800FFF73BFA0028BDD00646BBE700BF4F
:1034C8000044025810B504460420FDF753FD014B93
:1034D8001C6010BD4805002470B50D4E0D4D761BBF
:1034E800B61006D0002455F8043B01349847A6428C
:1034F800F9D1094E094D761B00F0D4F8B61006D064
:10350800002455F8043B01349847A642F9D170BD10
:1035180044370008443700084C370008443700088F
:10352800830730B548D0541E002A3FD0CAB203469C
:1035380001E0013C3AD303F8012B9D07F9D1032C94
:103548002DD9CDB245EA05250F2C45EA054536D9D2
:10355800A4F1100222F00F0C03F1200EE6444FEA0A
:10356800121C03F1100242E9045542E902551032D7
:103578007245F8D10CF1010214F00C0F03EB0212A2
:1035880004F00F0C13D0ACF1040323F0030304334D
:10359800134442F8045B9342FBD10CF003042CB1B2
:1035A800CAB21C4403F8012B9C42FBD130BD6446CF
:1035B8001346002CF4D1F9E703461446BFE71A4630
:1035C800A446E0E7024B13B1024800F005B8704783
:1035D80000000000ED350008002301461A46184691
:1035E80000F01AB838B5084B084D5B1B9C1007D083
:1035F800043B1D44013C55F804399847002CF9D187
:10360800BDE8384000F054B8503700084C3700087F
:10361800704700BF704700BF2DE9F047DFF87CA076
:103628000646DAF8000098460F469146FFF7F0FF85
:103638001B4B1B68D3F8484124B365681F2D26DC53
:103648005EB96B1C0235DAF80000636044F8257037
:10365800FFF7E0FF0020BDE8F08704EB85010123B8
:10366800C1F88890D4F88821AB401A43022EC4F8D8
:103678008821C1F80881E4D1D4F88C211343C4F817
:103688008C31DEE703F5A674C3F84841D5E7DAF8CC
:103698000000FFF7BFFF4FF0FF30DCE738040024DD
:1036A80040370008F8B500BFF8BC08BC9E46704714
:0C36B800F8B500BFF8BC08BC9E46704787
:1036C40000000000000000000000000000000000F6
:1036D40000000000010000000200000003000000E0
:1036E40004000000000000000500000000000000CD
:1036F40000000000000000000600000000000000C0
:1037040000000000000000000700000073656E6404
:103714006D736700726563766D7367000000000067
:10372400010203040102030406070809000102035D
:1037340004050607080C101418203040100000245B
:08374400CD350008BD020008AC
:04374C0099020008D6
:103750000090D0030090D003010000001000000092
:1037600000000000FC02002464030024CC030024B9
:103770000000000000000000000000000000000049
:103780000000000000000000000000000000000039
:103790000000000000000000000000000000000029
:1037A0000000000000000000000000000000000019
:1037B0000000000000000000000000000000000009
:1037C00000000000000000000000000000000000F9
:1037D00000000000000000000000000000000000E9
:1037E00000000000000000000000000000000000D9
:1037F00000000000000000000000000000000000C9
:1038000000000000000000000100000000000000B7
:103810000E33CDAB34126DE6ECDE05000B0000007C
:103820000000000000000000000000000000000098
:103830000000000000000000000000000000000088
:103840000000000000000000000000000000000078
:103850000000000000000000000000000000000068
:0C3B800000000000000000004C050024C4
:0400000508000D7969
:00000001FF
