:020000040800F2
:10000000000008242D0F0008190E00081B0E000820
:100010001D0E00081F0E0008210E00080000000041
:10002000000000000000000000000000230E000897
:10003000250E000800000000270E0008290E000809
:100040007D0F00087D0F00087D0F00087D0F000860
:100050007D0F00087D0F00087D0F00087D0F000850
:100060007D0F00087D0F00087D0F00087D0F000840
:100070007D0F00087D0F00087D0F00087D0F000830
:100080007D0F00087D0F00087D0F00087D0F000820
:100090007D0F00087D0F00087D0F00087D0F000810
:1000A0007D0F00087D0F00087D0F00087D0F000800
:1000B0007D0F00087D0F00087D0F00087D0F0008F0
:1000C0007D0F00087D0F00087D0F00087D0F0008E0
:1000D0007D0F0008310E00087D0F00087D0F00081D
:1000E0007D0F00087D0F0008000000007D0F000854
:1000F0007D0F00087D0F00087D0F00087D0F0008B0
:100100007D0F00087D0F00087D0F00087D0F00089F
:100110007D0F00087D0F00087D0F00087D0F00088F
:100120007D0F00087D0F00087D0F00087D0F00087F
:100130007D0F00087D0F00087D0F00087D0F00086F
:1001400000000000000000000000000000000000AF
:100150007D0F00087D0F00087D0F00087D0F00084F
:100160007D0F00087D0F00087D0F00087D0F00083F
:100170007D0F00087D0F00087D0F000800000000C3
:100180007D0F00087D0F00087D0F00087D0F00081F
:100190007D0F00087D0F00087D0F00087D0F00080F
:1001A0007D0F00087D0F00087D0F00087D0F0008FF
:1001B0007D0F00087D0F00087D0F00087D0F0008EF
:1001C0007D0F00087D0F00087D0F00087D0F0008DF
:1001D0007D0F00087D0F00087D0F00087D0F0008CF
:1001E0007D0F00087D0F00087D0F00087D0F0008BF
:1001F0007D0F00087D0F00087D0F00087D0F0008AF
:100200007D0F00087D0F00087D0F00087D0F00089E
:100210007D0F00087D0F00087D0F00087D0F00088E
:100220007D0F00087D0F00087D0F00080000000012
:100230007D0F00087D0F0008000000007D0F000802
:100240007D0F00087D0F00087D0F00087D0F00085E
:100250007D0F00087D0F00087D0F00087D0F00084E
:100260007D0F00087D0F00087D0F00087D0F00083E
:100270007D0F00087D0F00087D0F000800000000C2
:100280007D0F00087D0F00087D0F000800000000B2
:08029000000000007D0F0008D2
:1002980010B5054C237833B9044B13B10448AFF3B8
:1002A80000800123237010BD3C04002400000000DE
:1002B800C44F000808B5034B1BB103490348AFF30B
:1002C800008008BD0000000040040024C44F00085E
:1002D80080F0004002E000BF81F0004142001FBFF3
:1002E8005FEA410392EA030F7FEA226C7FEA236CFC
:1002F8006AD04FEA1262D2EB1363C1BFD2184140F1
:1003080048404140B8BF5B42192B88BF704710F086
:10031800004F40F4000020F07F4018BF404211F029
:10032800004F41F4000121F07F4118BF494292EA91
:10033800030F3FD0A2F1010241FA03FC10EB0C00BD
:10034800C3F1200301FA03F100F0004302D549424A
:1003580060EB4000B0F5000F13D3B0F1807F06D3F7
:1003680040084FEA310102F10102FE2A51D2B1F1EF
:10037800004F40EBC25008BF20F0010040EA0300E4
:100388007047490040EB0000013A28BFB0F5000F64
:10039800EDD2B0FA80FCACF1080CB2EB0C0200FA1A
:1003A8000CF0AABF00EBC25052421843BCBFD04069
:1003B8001843704792F0000F81F4000106BF80F4E3
:1003C80000000132013BB5E74FEA41037FEA226CA6
:1003D80018BF7FEA236C21D092EA030F04D092F071
:1003E800000F08BF0846704790EA010F1CBF0020A5
:1003F800704712F07F4F04D1400028BF40F0004002
:10040800704712F100723CBF00F50000704700F021
:10041800004343F0FE4040F4000070477FEA226248
:1004280016BF08467FEA23630146420206BF5FEA19
:10043800412390EA010F40F4800070474FF0000319
:1004480004E000BF10F0004348BF40425FEA000CE0
:1004580008BF704743F0964301464FF000001CE088
:1004680050EA010208BF70474FF000030AE000BFDE
:1004780050EA010208BF704711F0004302D540421C
:1004880061EB41015FEA010C02BF8446014600208E
:1004980043F0B64308BFA3F18053A3F50003BCFAA9
:1004A8008CF2083AA3EBC25310DB01FA02FC634456
:1004B80000FA02FCC2F12002BCF1004F20FA02F25D
:1004C80043EB020008BF20F00100704702F1200250
:1004D80001FA02FCC2F1200250EA4C0021FA02F2B1
:1004E80043EB020008BF20EADC7070474FF0FF0CB6
:1004F8001CEAD0521EBF1CEAD15392EA0C0F93EAB1
:100508000C0F6FD01A4480EA010C400218BF5FEA52
:1005180041211ED04FF0006343EA501043EA5111C5
:10052800A0FB01310CF00040B1F5000F3EBF4900BF
:1005380041EAD3715B0040EA010062F17F02FD2AC3
:100548001DD8B3F1004F40EBC25008BF20F00100A6
:10055800704790F0000F0CF0004C08BF49024CEABD
:10056800502040EA51207F3AC2BFD2F1FF0340EA4F
:10057800C250704740F400004FF00003013A5DDCC0
:1005880012F1190FDCBF00F000407047C2F1000201
:10059800410021FA02F1C2F1200200FA02FC5FEAEE
:1005A800310040F1000053EA4C0308BF20EADC7038
:1005B800704792F0000F00F0004C02BF400010F4AA
:1005C800000F013AF9D040EA0C0093F0000F01F057
:1005D800004C02BF490011F4000F013BF9D041EA79
:1005E8000C018FE70CEAD15392EA0C0F18BF93EA7B
:1005F8000C0F0AD030F0004C18BF31F0004CD8D1A5
:1006080080EA010000F00040704790F0000F17BF2B
:1006180090F0004F084691F0000F91F0004F14D071
:1006280092EA0C0F01D142020FD193EA0C0F03D1C9
:100638004B0218BF084608D180EA010000F00040CC
:1006480040F0FE4040F40000704740F0FE4040F4A7
:10065800400070474FF0FF0C1CEAD0521EBF1CEA46
:10066800D15392EA0C0F93EA0C0F69D0A2EB030264
:1006780080EA010C49024FEA402037D04FF08053FE
:1006880043EA111143EA10130CF000408B4238BFC3
:100698005B0042F17D024FF4000C8B4224BF5B1AD1
:1006A80040EA0C00B3EB510F24BFA3EB510340EA1F
:1006B8005C00B3EB910F24BFA3EB910340EA9C00CD
:1006C800B3EBD10F24BFA3EBD10340EADC001B013D
:1006D80018BF5FEA1C1CE0D1FD2A3FF650AF8B42E1
:1006E80040EBC25008BF20F0010070470CF0004CEE
:1006F8004CEA50207F32C2BFD2F1FF0340EAC25019
:10070800704740F400004FF00003013A37E792F0D9
:10071800000F00F0004C02BF400010F4000F013A37
:10072800F9D040EA0C0093F0000F01F0004C02BF32
:10073800490011F4000F013BF9D041EA0C0195E79B
:100748000CEAD15392EA0C0F08D142027FF47DAF34
:1007580093EA0C0F7FF470AF084676E793EA0C0F24
:1007680004D14B023FF44CAF08466EE730F0004C22
:1007780018BF31F0004CCAD130F000427FF45CAFB2
:1007880031F000437FF43CAF5FE700BF42000ED278
:10079800B2F1FE4F0BD34FF09E03B3EB126209D4B4
:1007A8004FEA002343F0004323FA02F070474FF06A
:1007B8000000704712F1610F01D1420202D14FF0DF
:1007C800FF3070474FF00000704700BF53B94AB977
:1007D800002908BF00281CBF4FF0FF314FF0FF3041
:1007E80000F074B9ADF1080C6DE904CE00F006F81C
:1007F800DDF804E0DDE9022304B070472DE9F04795
:10080800089E0D4604468846002B4DD18A429446E0
:1008180068D9B2FA82F252B101FA02F3C2F12001A8
:1008280020FA01F10CFA02FC41EA030894404FEA6D
:100838001C45210CB8FBF5FE1FFA8CF705FB1E833F
:1008480041EA03430EFB07F199420BD91CEB030362
:100858000EF1FF3080F01E81994240F21B81AEF10B
:10086800020E63445B1AA4B2B3FBF5F005FB103328
:1008780044EA034400FB07F7A7420AD91CEB040427
:1008880000F1FF3380F00881A74240F205816444FB
:100898000238E41B40EA0E4000211EB1D440002378
:1008A800C6E90043BDE8F0878B4208D9002E00F066
:1008B800EE800021C6E900050846BDE8F087B3FAD6
:1008C80083F100294AD1AB4202D3824200F2F98077
:1008D800841A65EB030301209846002EE2D0C6E98E
:1008E8000048DFE702B9FFDEB2FA82F2002A40F0E0
:1008F8009180A1EB0C054FEA1C471FFA8CFE0121E1
:10090800B5FBF7F307FB1350250C45EA00450EFB32
:1009180003F0A84208D91CEB050503F1FF3802D201
:10092800A84200F2CB8043462D1AA4B2B5FBF7F0DB
:1009380007FB105544EA05440EFB00FEA64508D9FE
:100948001CEB040400F1FF3502D2A64500F2BB807F
:100958002846A4EB0E0440EA03409EE7C1F12007B5
:100968008B4022FA07FC4CEA030C20FA07F405FA3C
:1009780001F31C43FD404FEA1C4900FA01F3B5FBA3
:10098800F9F8200C1FFA8CFE09FB185540EA0545BA
:1009980008FB0EF0A84202FA01F20BD91CEB050580
:1009A80008F1FF3A80F08880A84240F28580A8F1DB
:1009B800020865442D1AA4B2B5FBF9F009FB1055DD
:1009C80044EA054500FB0EFEAE4508D91CEB0505BB
:1009D80000F1FF346CD2AE456AD90238654440EA6A
:1009E8000840A0FB0294A5EB0E05A542C846A64602
:1009F80056D353D05EB1B3EB080265EB0E0505FA8A
:100A080007F722FA01F3CD401F43C6E9007500211C
:100A1800BDE8F087C2F1200320FA03F10CFA02FCCA
:100A280025FA03F395400D434FEA1C471FFA8CFE45
:100A3800B3FBF7F107FB11302B0C43EA004301FB32
:100A48000EF0984204FA02F408D91CEB030301F1F2
:100A5800FF382FD298422DD9023963441B1AADB200
:100A6800B3FBF7F007FB103345EA034500FB0EF331
:100A7800AB4208D91CEB050500F1FF3816D2AB4292
:100A880014D902386544ED1A40EA014138E7314685
:100A9800304607E78646E5E61846FAE64B45A9D20A
:100AA800B9EB020864EB0C0E0138A3E74046EAE70D
:100AB800204694E74146D1E7D0467BE7023B6544B0
:100AC80032E7084609E76444023842E7704700BF46
:100AD80010B588B0002203920492059206920792FC
:100AE800164BD3F8E01041F02001C3F8E010D3F81A
:100AF800E01001F0200101910199D3F8E01041F0D4
:100B08000101C3F8E010D3F8E03003F001030293C9
:100B1800029B0B4C4FF47071204600F009FF4FF414
:100B2800707303930123049305930223069303A987
:100B3800204600F0E9FD08B010BD00BF004402588F
:100B48000014025872B6FEE708B51848184B03603F
:100B58004FF4E133436000238360C36003610C22D8
:100B680042618361C36103624362836203F081FE71
:100B780098B900210D4803F0BBFF80B900210B484C
:100B880003F0DBFF68B9094803F093FF58B9012265
:100B98000849064803F03EFF08BDFFF7D3FFFFF7FB
:100BA800D1FFFFF7CFFFFFF7CDFF00BF58040024A8
:100BB80000100140C005002400B59DB04C22002162
:100BC80009A804F039F92022002101A804F034F919
:100BD800022000F0B3FE002300931F4BDA6A22F0D4
:100BE8000102DA62DB6A03F0010300931B4A93698E
:100BF80023F4404343F480439361936903F44043EF
:100C08000093009B154B9B6913F4005FFAD00223F5
:100C1800099301230C9340230D930023129309A8F1
:100C280000F0B6FEA0B93F2301930023029303937B
:100C380004930593402206924FF48062079208932A
:100C4800012101A801F00AFB20B91DB05DF804FBE1
:100C5800FFF778FFFFF776FF0004005800480258B6
:100C680010B500F0B1F903F0C1FFFFF7A5FF0423A9
:100C780002220521A02004F013F84FF4C87003F0F5
:100C880081FFFFF725FFFFF75FFF0122274928486B
:100C980003F022FE274C01224021204600F048FEA6
:100CA800012003F097FF01228021204600F040FE3A
:100CB800012003F08FFF00224021204600F038FE7B
:100CC800012003F087FF01224FF48071204600F0D5
:100CD8002FFE012003F07EFF00228021204600F035
:100CE80027FE012003F076FF01224FF40071204611
:100CF80000F01EFE012003F06DFF00224FF480710A
:100D0800204600F015FE012003F064FF0122402177
:100D1800204600F00DFE012003F05CFF00224FF496
:100D28000071204600F004FEB4E700BFC0050024AF
:100D3800580400240014025800B583B0094BD3F8B6
:100D4800F42042F00202C3F8F420D3F8F43003F0A0
:100D580002030193019B052000F084F903B05DF8BC
:100D680004FB00BF0044025810B5B8B00446002187
:100D780033913491359136913791C02202A804F00D
:100D88005BF822681F4B9A4201D038B010BD01228F
:100D98000023CDE9022302A801F0FCFC78BB1A4B22
:100DA800D3F8F02042F01002C3F8F020D3F8F02076
:100DB80002F010020092009AD3F8E02042F00102FB
:100DC800C3F8E020D3F8E03003F001030193019B5E
:100DD8004FF4C0633393022334930023359336933F
:100DE8000723379333A9094800F08EFC03221146E4
:100DF800252000F049F9252000F07CF9C5E7FFF728
:100E0800A1FECCE70010014000440258000002583F
:100E1800FEE7FEE7FEE7FEE7FEE77047704770472C
:100E280008B500F0FFF808BD10B50D4802F08AFCBF
:100E380000240B4803F006F9202805D00134B4F546
:100E4800003FF6D3002400E00024012205490448AD
:100E580003F0E0FD18B10134B4F5003FF5D310BD3F
:100E680058040024C0050024244B1B6803F00F031A
:100E7800062B06D8214A136823F00F0343F0070313
:100E880013601F4B1A6842F001021A6000221A61AF
:100E980019681C4A0A401A60184B1B6813F0080F9F
:100EA80006D0164A136823F00F0343F007031360B4
:100EB800134B00229A61DA611A6213499962134945
:100EC800D962134919635A639963DA6319645A64D6
:100ED800196821F4802119601A660E4B1A680E4BA6
:100EE8001340B3F1005F03D20C4B0122C3F8082171
:100EF8000B4B43F2D2021A60704700BF0020005229
:100F0800004402587FEDF6EA000202020000FF01E9
:100F1800800201010010005C0000FFFF008000510A
:100F280000400052DFF834D0FFF79EFF0C480D490F
:100F38000D4A002302E0D458C4500433C4188C422C
:100F4800F9D30A4A0A4C002301E013600432A24292
:100F5800FBD303F04DFFFFF783FE70470000082422
:100F6800000000243C0400242C5000083C04002409
:100F7800C8050024FEE70000104B1B780BB90120C0
:100F8800704710B504464FF47A70B0FBF3F30C4A7F
:100F98001068B0FBF3F000F0BBF868B90F2C01D96A
:100FA80001200AE0002221464FF0FF3000F06CF8E3
:100FB800044B1C60002000E0012010BD0800002444
:100FC800000000240C00002410B5032000F04AF8AB
:100FD80001F038F80F498B69C3F303230E4AD35C39
:100FE80003F01F03D8408B6903F00F03D35C03F0B1
:100FF8001F0320FA03F3094A1360094B1860002005
:10100800FFF7BAFF10B10124204610BD0446FFF7D0
:1010180093FEF9E700440258DC4F0008040000245E
:1010280000000024034B1B78034A11680B4413602B
:10103800704700BF08000024EC040024014B186826
:10104800704700BFEC040024014B1868000C70477F
:101058000010005C024A136A43F0010313627047F0
:10106800000400580649CB6823F4E0631B041B0CFA
:10107800000200F4E0600343024A1A43CA60704762
:1010880000ED00E00000FA0500B5174BDB68C3F37C
:101098000223C3F1070CBCF1040F28BF4FF0040C66
:1010A80003F1040EBEF1060F14D9033B4FF0FF3EC7
:1010B8000EFA0CFC21EA0C0199400EFA03F322EA1D
:1010C80003031943002807DB0901C9B2074B195468
:1010D8005DF804FB0023E9E700F00F000901C9B23D
:1010E800034B1954F4E700BF00ED00E000E400E012
:1010F80014ED00E0002807DB00F01F02400901237F
:101108009340024A42F82030704700BF00E100E0F7
:101118000138B0F1807F0BD24FF0E0235861054AC7
:10112800F02182F823100020986107221A61704785
:101138000120704700ED00E0042806D04FF0E022BF
:10114800136923F00403136170474FF0E022136919
:1011580043F004031361704770B50446FFF76EFF50
:10116800002C00F09181054694F83530DBB2022B53
:1011780006D080236365002384F83430012070BDD5
:1011880023688C498C4A934218BF8B4230D018325E
:1011980093422DD0183293422AD01832934227D046
:1011A8001832934224D01832934221D018329342F5
:1011B8001ED002F5567293421AD01832934217D0B5
:1011C8001832934214D01832934211D018329342F5
:1011D8000ED0183293420BD01832934208D01832EE
:1011E800934205D01A6822F00E021A60266809E0B8
:1011F8001A6822F01E021A602268536923F08003DD
:101208005361266823686B496B4A934218BF8B4227
:1012180042D0183293423FD0183293423CD0183211
:10122800934239D01832934236D01832934233D091
:101238001832934230D002F5567293422CD01832AD
:10124800934229D01832934226D01832934223D0A1
:101258001832934220D0183293421DD0183293424C
:101268001AD01832934217D0544A934214D01432E9
:10127800934211D0143293420ED0143293420BD0C1
:101288001432934208D01432934205D01432934258
:1012980002D01432934204D1226E136823F480736F
:1012A800136023684349444A934218BF8B422FD0A6
:1012B800183293422CD01832934229D018329342D4
:1012C80026D01832934223D01832934220D01832B5
:1012D80093421DD002F55672934219D018329342A8
:1012E80016D01832934213D01832934210D01832C5
:1012F80093420DD0183293420AD01832934207D045
:101308001832934204D01A6822F001021A6003E0EE
:101318001A6822F001021A60336813F0010F0ED028
:10132800FFF78CFE431B052BF6D9202363650323A7
:1013380084F83530002384F8343001201FE723680F
:101348001C491D4A934218BF8B4239D01832934228
:1013580036D01832934233D01832934230D01832F4
:1013680093422DD0183293422AD01832934227D074
:1013780002F55672934223D01832934220D0183285
:1013880093421DD0183293421AD01832934217D084
:101398001832934214D01832934211D01832934223
:1013A8000ED0A16DE36D03F01F02012393404B6043
:1013B8000DE000BF10000240280002400854025807
:1013C800A16DE36D03F01F023F2393408B602368F8
:1013D8002E492F4A934218BF8B4242D0183293426B
:1013E8003FD0183293423CD01832934239D0183249
:1013F800934236D01832934233D01832934230D0C9
:1014080002F5567293422CD01832934229D01832E2
:10141800934226D01832934223D01832934220D0D8
:10142800183293421DD0183293421AD01832934280
:1014380017D0184A934214D01432934211D0143260
:1014480093420ED0143293420BD01432934208D0F8
:101458001432934205D01432934202D0143293428C
:101468000BD1636EA26E5A60E36E33B11A6822F430
:1014780080721A60236F626F5A60012384F83530D6
:10148800002084F834007AE6012078E61000024053
:101498002800024008540258002800F0298108B5A5
:1014A800024690F83530DBB2022B03D08023436527
:1014B800012008BD0368904890498B4218BF8342B9
:1014C8000CBF0121002166D03030834263D0183030
:1014D800834260D0183083425DD0183083425AD09E
:1014E8001830834257D01830834254D000F55670D4
:1014F800834250D0183083424DD0183083424AD0AE
:101508001830834247D01830834244D01830834281
:1015180041D0183083423ED0183083423BD01968FE
:1015280021F00E0119601368A0F5956073498B428C
:1015380018BF83426AD072498B4267D018318B42F8
:1015480064D018318B4261D018318B425ED018318B
:101558008B425BD018318B4258D001F556718B42C3
:1015680054D018318B4251D018318B424ED018319B
:101578008B424BD018318B4248D018318B4245D022
:1015880018318B4242D018318B423FD0196821F074
:10159800010119603EE0042082F8350081BB584AF9
:1015A80093422DD0183293422AD01832934227D032
:1015B8001832934224D01832934221D018329342E1
:1015C8001ED002F5567293421AD01832934217D0A1
:1015D8001832934214D01832934211D018329342E1
:1015E8000ED0183293420BD01832934208D01832DA
:1015F800934205D01A6822F001021A60002058E7C9
:101608001A6822F001021A60002052E7196821F0D6
:10161800010119601368384838498B4218BF834262
:1016280042D018318B423FD018318B423CD0183110
:101638008B4239D018318B4236D018318B4233D097
:1016480018318B4230D001F556718B422CD01831AD
:101658008B4229D018318B4226D018318B4223D0A7
:1016680018318B4220D018318B421DD018318B4253
:101678001AD018318B4217D022498B4214D014311A
:101688008B4211D014318B420ED014318B420BD0C7
:1016980014318B4208D014318B4205D014318B425F
:1016A80002D014318B4217D1116E0B6823F480736A
:1016B8000B60906DD36D03F01F0101238B404360D5
:1016C800536E916E5960D36E33B1196821F48071ED
:1016D8001960136F516F5960012382F83530002368
:1016E80082F83430136D2BB1104698470020E0E69D
:1016F800012070470020DCE610000240280002406C
:10170800400002400854025870B582B000236EE0D1
:1017180085685E000324B44025EA0405CC68B4401B
:101728002C438460446824EA0C0C4C68C4F300140D
:101738009C4044EA0C0444606CE0DD08083550F82D
:10174800256003F007044FEA840C0F2404FA0CF414
:1017580026EA040E0C6904FA0CF444EA0E0440F874
:1017680025406FE0092400E0002404FA0EF42C431D
:101778000CF1020C6B4D45F82C404FF0B044256835
:10178800D44325EA0206D1F804C01CF4801F01D016
:1017980042EA05064FF0B0452E606D6804EA05067A
:1017A800D1F804C01CF4001F01D042EA05064FF02E
:1017B800B0456E60D5F8845004EA0506D1F804C037
:1017C8001CF4003F01D042EA05064FF0B045C5F8C9
:1017D8008460D5F880502C404E6816F4803F01D0C4
:1017E80042EA05044FF0B042C2F8804001330A686B
:1017F80032FA03F400F093804FF0010C0CFA03FC6A
:101808001CEA0202F2D04C6804F00304013C012CEB
:101818007FF67EAF4C6804F00304032C0CD0C46838
:101828005D004FF0030C0CFA05FC24EA0C0C8C68E4
:10183800AC4044EA0C04C4604C6804F00304022C75
:101848003FF47BAF04684FEA430E4FF0030C0CFAE9
:101858000EFC24EA0C0C4C6804F0030404FA0EF4A1
:1018680044EA0C0404604C6814F4403FBED02E4C8B
:10187800D4F8F45045F00205C4F8F450D4F8F44014
:1018880004F002040194019C4FEA930C0CF1020548
:10189800244C54F8255003F003044FEA840E0F2417
:1018A80004FA0EF425EA0405204CA0423FF45CAF8C
:1018B80004F58064A04222D004F58064A04220D0C0
:1018C80004F58064A0421ED004F58064A0421CD0B8
:1018D80004F58064A0421AD004F58064A04218D0B0
:1018E80004F58064A04216D004F58064A04214D0A8
:1018F80004F58064A0423FF435AF0A2435E701249B
:1019080033E7022431E703242FE704242DE70524D5
:101918002BE7062429E7072427E7082425E702B050
:1019280070BD00BF0004005800440258000002586F
:101938000AB181617047090481617047134BDB6804
:1019480013F0040F07D1114BDB6803F00703834240
:101958001AD00120704710B50C4AD36823F007034A
:101968001843D060FFF76AFB0446084B5B6813F422
:10197800005F07D1FFF762FB001BB0F57A7FF4D94F
:10198800012000E0002010BD0020704700480258E8
:10199800002800F0398338B50446036813F0010FB6
:1019A80025D0944A136903F03803926A102B15D096
:1019B800182B0FD06368B3F5803F3FD0002B53D16D
:1019C8008C4B1A6822F480321A601A6822F480223A
:1019D8001A6038E002F00302022AEBD1854B1B683B
:1019E80013F4003F03D06368002B00F00F832368D3
:1019F80013F0020F00F0A1807E4A1369926A13F077
:101A080038035AD0182B55D0E368002B00F0DE803D
:101A180078490A6822F0190213430B60FFF70EFB9E
:101A28000546744B1B6813F0040F40F0AD80FFF7B8
:101A380005FB401B0228F4D90320EEE26D4A136827
:101A480043F48033136063682BB3FFF7F7FA054656
:101A5800684B1B6813F4003FC9D1FFF7EFFA401B2E
:101A68006428F5D90320D8E2B3F5A02F09D0614B3B
:101A78001A6822F480321A601A6822F480221A60E6
:101A8800E1E75C4B1A6842F480221A601A6842F453
:101A980080321A60D7E7FFF7D1FA0546554B1B6825
:101AA80013F4003FA3D0FFF7C9FA401B6428F5D907
:101AB8000320B2E212F0030FA6D14E4B1B6813F0BD
:101AC800040F03D0E368002B00F0A282494A136890
:101AD80023F01903E1680B431360FFF7AFFA0546DB
:101AE800444B1B6813F0040F06D1FFF7A7FA401BFD
:101AF8000228F5D9032090E2FFF7A6FA41F2030382
:101B0800984212D82269402A07D03A494B6823F4F0
:101B18007C3343EA02334B600FE0364A536823F4C0
:101B28007C3343F40033536007E0324A536823F0B0
:101B3800FE43216943EA01635360236813F0100FE1
:101B480000F088802B4A136903F03803926A082B47
:101B580056D0182B50D0E369002B00F0B880254AE6
:101B6800136843F080031360FFF768FA0546214BBA
:101B78001B6813F4807F40F08880FFF75FFA401BF2
:101B88000228F4D9032048E2FFF75EFA41F2030382
:101B9800984212D82269402A07D016494B6823F484
:101BA8007C3343EA02334B60C7E7124A536823F495
:101BB8007C3343F400335360BFE70E4A536823F085
:101BC800FE43216943EA01635360B6E7094A136893
:101BD80023F001031360FFF731FA0546054B1B6834
:101BE80013F0040FA9D0FFF729FA401B0228F5D9F2
:101BF800032012E20044025802F00302012AAAD18B
:101C0800A14B1B6813F4807F03D0E369802B40F05D
:101C18000182FFF719FA41F20303984212D8226AA7
:101C2800202A07D098494B6823F0F84343EA826397
:101C38004B600FE0944A536823F0F84343F0804325
:101C4800536007E0904AD36823F07C53216A43EA43
:101C58000163D360236813F0080F60D06369002B19
:101C680049D0894A536F43F001035367FFF7E6F9F8
:101C78000546854B5B6F13F0020F50D1FFF7DEF975
:101C8800401B0228F5D90320C7E1FFF7DDF941F22F
:101C98000303984212D8226A202A07D07A494B684F
:101CA80023F0F84343EA82634B60D3E7764A5368EC
:101CB80023F0F84343F080435360CBE7724AD3687C
:101CC80023F07C53216A43EA0163D360C2E76E4A7A
:101CD800136823F080031360FFF7B0F905466A4BD9
:101CE8001B6813F4807FB5D0FFF7A8F9401B0228C2
:101CF800F5D9032091E1644A536F23F00103536738
:101D0800FFF79CF90546604B5B6F13F0020F06D096
:101D1800FFF794F9401B0228F5D903207DE12368D9
:101D280013F0200F29D0A3699BB1574A136843F4D5
:101D380080531360FFF782F90546534B1B6813F471
:101D4800005F1AD1FFF77AF9401B0228F5D9032062
:101D580063E14D4A136823F480531360FFF76EF96B
:101D68000546494B1B6813F4005F06D0FFF766F978
:101D7800401B0228F5D903204FE1236813F0040F14
:101D880021D1636A002B00F047813F4A126902F0B3
:101D98003802182A00F0EE80022B79D03A4A1368EC
:101DA80023F080731360FFF749F90446364B1B682C
:101DB80013F0007F00F0DC80FFF740F9001B0228D9
:101DC800F4D9032029E1314A136843F4807313607E
:101DD800FFF734F905462D4B1B6813F4807F06D1B5
:101DE800FFF72CF9401B6428F5D9032015E1A368F7
:101DF800012B0AD00BBB244B1A6F22F001021A6781
:101E08001A6F22F004021A6704E01F4A136F43F0A6
:101E180001031367A36833B3FFF710F905461A4B9C
:101E28001B6F13F0020FACD1FFF708F9401B41F20A
:101E380088339842F3D90320EFE0052B09D0124BE1
:101E48001A6F22F001021A671A6F22F004021A6749
:101E5800E0E70D4B1A6F42F004021A671A6F42F05E
:101E680001021A67D6E7FFF7E9F80546064B1B6F2C
:101E780013F0020F85D0FFF7E1F8401B41F28833D9
:101E88009842F3D90320C8E0004402580048025899
:101E9800694A136823F080731360FFF7CFF805468B
:101EA800654B1B6813F0007F06D0FFF7C7F8401B8F
:101EB8000228F5D90320B0E05F4B996A5F4A0A40CF
:101EC800A16AE06A41EA00110A439A62226B013A68
:101ED800C2F30802616B0139490289B20A43A16B56
:101EE8000139090401F4FE010A43E16B01390906CD
:101EF80001F0FE410A431A63DA6A22F00102DA624B
:101F0800596B4F4A0A40A16C42EAC1025A63DA6A25
:101F180022F00C02216C0A43DA62DA6A22F0020229
:101F2800616C0A43DA62DA6A42F48032DA62DA6AA7
:101F380042F40032DA62DA6A42F48022DA62DA6A59
:101F480042F00102DA621A6842F080721A60FFF702
:101F580075F80446384B1B6813F0007F06D1FFF76D
:101F68006DF8001B0228F5D9032056E0002054E044
:101F7800002052E0304A916A106B012B4ED001F0DC
:101F88000303A26A93424BD1C1F30511E36A994254
:101F980048D1C0F30802236B013B9A4244D1C0F3F5
:101FA8004622636B013B9A4240D1C0F30642A36BC1
:101FB800013B9A423CD1C0F30660E36B013B984277
:101FC80038D11D4B5B6BC3F3CC03A26C9A4201D191
:101FD800002022E0184AD36A23F00103D362FFF7F6
:101FE8002DF80546FFF72AF8A842FBD0124A516B94
:101FF800134B0B40A16C43EAC1035363D36A43F00C
:102008000103D362002008E001207047012004E0AA
:10201800012002E0012000E0002038BD0120FCE79B
:102028000120FAE70120F8E70120F6E70120F4E7AC
:102038000120F2E70120F0E7004402580CFCFFFF02
:102048000700FFFFF8B57E4B1B6903F03803102B20
:1020580000F0F280182B10D013B17A4C2046F8BD4E
:10206800774B1B6813F0200F00F0E880744B18685A
:10207800C0F3C100744CC440F0E7714B9D6A05F091
:1020880003059C6AC4F30514D86A00F001005B6B71
:10209800C3F3CC0303FB00F0FEF7D0F90646002C8F
:1020A800DCD0012D76D0022D00F0A4800DB320469F
:1020B800FEF7C4F901466548FEF7CCFA0446604BC2
:1020C800186BC0F30800FEF7B9F905464FF06451E4
:1020D8003046FEF70BFA01462846FEF7FFF84FF0A8
:1020E8007E51FEF7FBF801462046FEF7FFF904464D
:1020F80071E0534B1B6813F0200F29D0504F3B68F9
:10210800C3F3C1035048D840FEF798F90546204666
:10211800FEF794F901462846FEF79CFA0446386B08
:10212800C0F30800FEF78AF905464FF064513046BF
:10213800FEF7DCF901462846FEF7D0F84FF07E514D
:10214800FEF7CCF801462046FEF7D0F9044642E0F7
:102158002046FEF773F901463D48FEF77BFA044630
:10216800374B186BC0F30800FEF768F905464FF0C7
:1021780064513046FEF7BAF901462846FEF7AEF834
:102188004FF07E51FEF7AAF801462046FEF7AEF959
:10219800044620E02046FEF751F901462B48FEF799
:1021A80059FA0446264B186BC0F30800FEF746F9A7
:1021B80005464FF064513046FEF798F90146284627
:1021C800FEF78CF84FF07E51FEF788F8014620465E
:1021D800FEF78CF904461A4B1B6BC3F34623581CB5
:1021E800FEF72CF901462046FEF734FAFEF7CEFA40
:1021F800044633E72046FEF721F901461548FEF765
:1022080029FA04460E4B186BC0F30800FEF716F9BE
:1022180005464FF064513046FEF768F901462846F6
:10222800FEF75CF84FF07E51FEF758F8014620465D
:10223800FEF75CF90446CEE7074C0FE7024C0DE7C2
:102248000044025800093D000090D0030024744A5D
:102258000024744C20BCBE4B40787D01002800F05F
:10226800328170B50D4604469B4B1B6803F00F0383
:102278008B420BD2984A136823F00F030B43136069
:10228800136803F00F038B4240F01F81236813F09B
:10229800040F0CD02269914B9B6903F070039A429A
:1022A80005D98E498B6923F070031A438A61236824
:1022B80013F0080F0CD06269884BDB6903F07003D8
:1022C8009A4205D98549CB6923F070031A43CA613C
:1022D800236813F0100F0CD0A269804BDB6903F45C
:1022E800E0639A4205D97D49CB6923F4E0631A4338
:1022F800CA61236813F0200F0CD0E269774B1B6A80
:1023080003F070039A4205D974490B6A23F07003ED
:102318001A430A62236813F0020F0CD0E2686F4B6D
:102328009B6903F00F039A4205D96C498B6923F026
:102338000F031A438A61236813F0010F41D0674ADB
:10234800936923F47063A1680B4393616368022B5C
:102358000AD0032B27D0012B2CD0604A126812F028
:10236800040F06D10120ADE0126812F4003F00F01E
:10237800AE805A490A6922F0070213430B61FEF73F
:102388005DFE0646554B1B6903F038036268B3EBE4
:10239800C20F16D0FEF752FE801B41F288339842D6
:1023A800F0D903208EE04D4A126812F0007FE0D188
:1023B800012087E0494A126812F4807FD9D10120B0
:1023C80080E0236813F0020F0CD0E268434B9B694E
:1023D80003F00F039A4205D240498B6923F00F039B
:1023E8001A438A613C4B1B6803F00F03AB420AD9BE
:1023F800394A136823F00F032B431360136803F063
:102408000F03AB4265D1236813F0040F0CD0226987
:10241800324B9B6903F070039A4205D22F498B69AE
:1024280023F070031A438A61236813F0080F0CD055
:1024380062692A4BDB6903F070039A4205D2274987
:10244800CB6923F070031A43CA61236813F0100F95
:102458000CD0A269214BDB6903F4E0639A4205D2F0
:102468001E49CB6923F4E0631A43CA61236813F059
:10247800200F0CD0E269194B1B6A03F070039A42D3
:1024880005D216490B6A23F070031A430A62FFF754
:10249800D9FD12498B69C3F30323114AD35C03F0B6
:1024A8001F03D8408B6903F00F03D35C03F01F03AD
:1024B80020FA03F30B4A13600B4B18600B4B186898
:1024C800FEF75AFD70BD012070470120FAE7012090
:1024D800F8E70120F6E700BF002000520044025848
:1024E800DC4F000804000024000000240C00002435
:1024F80008B5FFF7A7FD0B4A9369C3F303230A49FD
:10250800CB5C03F01F0320FA03F3926902F00F0279
:10251800885C00F01F0023FA00F0044A1060044AA7
:10252800136008BD00440258DC4F00080400002472
:102538000000002408B5FFF7DBFF054BDB69C3F398
:102548000213044AD35C03F01F03D84008BD00BF40
:1025580000440258DC4F000808B5FFF7C9FF054BD7
:10256800DB69C3F30223044AD35C03F01F03D8409A
:1025780008BD00BF00440258DC4F0008404B9B6A6E
:1025880003F00303032B79D070B505460E463C4A89
:10259800136823F080631360FEF750FD0446384B40
:1025A8001B6813F0006F06D0FEF748FD031B022BD3
:1025B800F5D9032070BD324B9A6A22F47C3229681F
:1025C80042EA01329A626A68013AC2F30802A968CB
:1025D8000139490289B20A43E9680139090401F459
:1025E800FE010A4329690139090601F0FE410A433F
:1025F8009A63DA6A22F0C00269690A43DA62DA6A1F
:1026080022F02002A9690A43DA62DA6A22F010028B
:10261800DA62D96B1B4A0A40E96942EAC102DA6305
:10262800DA6A42F01002DA62C6B91A46DB6A43F483
:102638000023D362124A136843F080631360FEF7E5
:10264800FDFC04460E4B1B6813F0006F14D1FEF717
:10265800F5FC001B0228F5D90320ABE7012E05D0B5
:10266800074AD36A43F40013D362E3E7044AD36A00
:1026780043F48013D362DDE700209BE70120704715
:10268800004402580700FFFF404B9B6A03F0030316
:10269800032B79D070B505460E463C4A136823F0E3
:1026A80080531360FEF7CAFC0446384B1B6813F0CE
:1026B800005F06D0FEF7C2FC031B022BF5D90320EE
:1026C80070BD324B9A6A22F07C72296842EA015244
:1026D8009A626A68013AC2F30802A9680139490294
:1026E80089B20A43E9680139090401F4FE010A4381
:1026F80029690139090601F0FE410A431A64DA6AB8
:1027080022F4406269690A43DA62DA6A22F40072E2
:10271800A9690A43DA62DA6A22F48072DA62596CC9
:102728001B4A0A40E96942EAC1025A64DA6A42F479
:102738008072DA62C6B91A46DB6A43F48003D36250
:10274800124A136843F080531360FEF777FC04467F
:102758000E4B1B6813F0005F14D1FEF76FFC001BD3
:102768000228F5D90320ABE7012E05D0074AD36A22
:1027780043F08073D362E3E7044AD36A43F4000367
:10278800D362DDE700209BE7012070470044025830
:102798000700FFFFF8B50446036813F0006F30D058
:1027A800836EB3F5001F26D00ED8EBB1B3F5801FAA
:1027B80007D102210830FFF7E1FE054645B12E4654
:1027C80021E0012635461EE0B3F5401F09D100255A
:1027D800984A136D23F44013A16E0B43136500262A
:1027E80011E0012635460EE0924AD36A43F40033DD
:1027F800D3620025ECE702212830FFF745FF0546A4
:10280800DCE700263546236813F4807F14D0A36DD7
:10281800042B32D8DFE803F003232A080800854A8E
:10282800D36A43F40033D36255BB824A136D23F055
:102838000703A16D0B431365236813F4007F31D0A0
:10284800E36D802B4CD020D8002B43D0402B19D1DE
:10285800002104F10800FFF791FE05461AE0002167
:1028680004F10800FFF78AFE0546DDE7002104F1C0
:102878002800FFF709FF0546D6E701263546DBE7BE
:102888002E46D9E7012635460CE0C02B02D0B3F519
:10289800807F1CD15DBB674A136D23F4E073E16D43
:1028A8000B431365236813F4806F46D0D4F8A8301F
:1028B800B3F5800F39D01FD88BB3B3F5001F18D1EB
:1028C800002104F10800FFF759FE05461AE0012629
:1028D8003546E7E7574AD36A43F40033D362D9E76A
:1028E800002104F12800FFF7CFFE0546D2E72E4667
:1028F800D8E70126354620E0B3F5C00F02D0B3F57E
:10290800000F09D1C5B94B4A936D23F46003D4F87D
:10291800A8100B43936510E0012635460DE0454AA3
:10292800D36A43F40033D362ECE7002104F12800B2
:10293800FFF7AAFE0546E5E72E46236813F4006F65
:1029480024D0D4F8AC30B3F1007F42D00ED8002B9D
:1029580039D0B3F1807F06D1002104F10800FFF7D8
:102968000DFE054608E0012635460FE0B3F1407F2D
:1029780002D0B3F1806F23D1002D31D12D4A936D50
:1029880023F0E063D4F8AC100B439365236813F08D
:10299800007F2ED0E36C202B40D026D833B1102BEB
:1029A80020D1244AD36A43F40033D362002D3CD1AA
:1029B800204AD36C23F03003E16C0B43D36418E056
:1029C80001263546E2E71B4AD36A43F40033D36253
:1029D800D2E7002104F12800FFF756FE0546CBE7B1
:1029E8002E46D3E70126354603E0302BDED00126FC
:1029F8003546236813F4805F2DD0236EB3F5005F4E
:102A08004FD019D8002B46D0B3F5805F0FD10021E5
:102A180004F10800FFF7B2FD054613E0022104F1B6
:102A28000800FFF7ABFD0546C0E72E46E1E70126A3
:102A3800354610E000440258B3F5405F02D0B3F5C4
:102A4800804F25D1002D33D1774A136D23F4E0430D
:102A5800216E0B431365236813F4005F38D0636E4F
:102A6800B3F5003F53D028D843B1B3F5803F21D107
:102A7800012104F10800FFF781FD0546002D4DD125
:102A8800694A136D23F4E023616E0B4313651FE05D
:102A980001263546DFE7644AD36A43F40033D3623C
:102AA800D0E7002104F12800FFF7EEFD0546C9E74D
:102AB8002E46D0E7012635460AE0B3F5802FDDD053
:102AC800B3F5A02FDAD0B3F5403FD7D0012635466D
:102AD800236813F4804F31D0D4F8B030B3F1005FDD
:102AE80045D020D843B1B3F1805F19D1012104F159
:102AF8000800FFF743FD0546002D3FD14A4A936D74
:102B080023F0E043D4F8B0100B43936516E001219D
:102B180004F12800FFF7B8FD0546AFE72E46D7E7D2
:102B2800012635460AE0B3F1804FE5D0B3F1A04F56
:102B3800E2D0B3F1405FDFD001263546236813F4B5
:102B4800004F09D0236FB3F1805F19D0B3F1005F54
:102B580024D0D3B101263546236813F0807F33D0C3
:102B6800A36C032B5BD8DFE803F02722532701214E
:102B780004F12800FFF788FD0546BDE72E46DDE78E
:102B8800294AD36A43F40033D36275B9264A136DD0
:102B980023F04053216F0B431365DDE7012104F156
:102BA8000800FFF7EBFC0546EFE72E46D4E71E4A80
:102BB800D36A43F40033D362A5BB1B4AD36C23F01A
:102BC8000303A16C0B43D364236813F4800F2DD146
:102BD800236813F0010F00F0A580E36F282B00F2A3
:102BE8009F80DFE803F08D9D9D9D9D9D9D9D879D08
:102BF8009D9D9D9D9D9D969D9D9D9D9D9D9D8D9D14
:102C08009D9D9D9D9D9D8D9D9D9D9D9D9D9D8D00A9
:102C1800022104F10800FFF7B1FC0546CCE70126C4
:102C28003546D1E72E46CFE700440258914A13684B
:102C380043F480731360FEF701FA07468D4B1B6857
:102C480013F4807F05D1FEF7F9F9C01B6428F5D984
:102C58000325002D4AD1884B1B6FD4F8B42053406C
:102C680013F4407F0CD0844B1A6F22F44072196F12
:102C780041F480311967196F21F4803119671A6797
:102C8800D4F8B430B3F5807F15D08DBBD4F8B43008
:102C980003F44072B2F5407F1ED0774A136923F4DB
:102CA8007C53136174490B6FD4F8B420C2F30B0240
:102CB80013430B678CE7FEF7C1F907466E4B1B6F92
:102CC80013F0020FE1D1FEF7B9F9C01B41F28833C6
:102CD8009842F3D90325D8E76748026922F47C5261
:102CE800664901EA131313430361DBE72E466FE7D6
:102CF8002E466DE7012104F10800FFF73FFC054669
:102D0800E5B95D4A536D23F03803E16F0B43536512
:102D180008E0012104F12800FFF7B6FC0546EFE7BB
:102D280001263546236813F0020F17D0A36F052B31
:102D380028D8DFE803F00B05200B0B0B2E46F1E734
:102D4800012104F10800FFF719FC0546EDB94A4ACC
:102D5800536D23F00703A16F0B435365236813F0EA
:102D6800040F23D0D4F89430052B45D8DFE803F0BE
:102D7800150F3D151515012104F12800FFF784FCF6
:102D88000546E3E701263546E8E72E46E6E7012152
:102D980004F10800FFF7F2FB054685BB364A936D40
:102DA80023F00703D4F894100B439365236813F0BA
:102DB800200F34D0D4F89030B3F1005F4ED023D830
:102DC80043B1B3F1805F1CD1002104F10800FFF783
:102DD800D5FB0546002D48D1274A536D23F0E04323
:102DE800D4F890100B43536519E0012104F1280031
:102DF800FFF74AFC0546D0E701263546D6E72E46BA
:102E0800D4E7012635460AE0B3F1804FE2D0B3F1AA
:102E1800A04FDFD0B3F1405FDCD0012635462368F0
:102E280013F0400F37D0D4F89C30B3F5006F53D06F
:102E380026D843B1B3F5806F19D1002104F10800F9
:102E4800FFF79CFB0546002D4DD10B4A936D23F4EB
:102E5800E053D4F89C100B4393651CE0022104F165
:102E68002800FFF711FC0546B4E72E46D7E70126F0
:102E7800354610E00048025800440258CFFFFF00D2
:102E8800B3F5805FDFD0B3F5A05FDCD0B3F5406F5A
:102E9800D9D001263546236813F0800F33D0D4F8F3
:102EA800A030B3F5804F00F0A38021D843B1B3F52B
:102EB800005F1AD1002104F10800FFF75FFB054607
:102EC800002D40F09C80814A936D23F46043D4F830
:102ED800A0100B43936516E0022104F12800FFF7C8
:102EE800D3FB0546AFE72E46D5E7012635460AE06F
:102EF800B3F5004FE4D0B3F5204FE1D0B3F5C04FA0
:102F0800DED001263546236813F0080F0CD0D4F81C
:102F18008430B3F5805F74D06C4A536D23F440530A
:102F2800D4F884100B435365236813F0100F0CD0AA
:102F3800D4F89830B3F5807F6CD0644A936D23F44D
:102F48004073D4F898100B439365236813F4002F4B
:102F58000BD0D4F8A430B3F5803F74D0B3F5003F5C
:102F680067D0002B5FD001263546236813F4802FE5
:102F78000CD0D4F88830B3F5001F7CD0B3F5401FCF
:102F88006FD0B3F5801F67D001263546236813F448
:102F9800803F08D0236D002B76D0B3F5803F00F03A
:102FA800818001263546236813F0005F40F0838056
:102FB800236813F4003F00F08E80D4F88030B3F516
:102FC800807F00F0EC8040F28380B3F5007F03D06F
:102FD800B3F5407F40F0E180002D40F0E6803B4AA9
:102FE800536D23F44073D4F880100B43536572E09B
:102FF800022104F12800FFF747FB054660E72E464B
:1030080081E7022104F12800FFF73EFB002883D066
:10301800012681E7022104F12800FFF735FB00288B
:103028008BD0012689E7002104F10800FFF7A6FAF2
:1030380005467DB9254A936D23F44033D4F8A4108E
:103048000B43936591E7022104F12800FFF71CFB6D
:103058000546EEE72E4688E71C4AD36A43F4003358
:10306800D3627DB9194A536D23F44013D4F88810FC
:103078000B4353658AE7012104F12800FFF704FB9D
:103088000546EEE72E4681E7104AD36A43F400333B
:10309800D36275B90D4AD36C23F48033216D0B4389
:1030A800D36480E7022104F10800FFF767FA0546B8
:1030B800EFE72E4677E7022104F12800FFF7E4FA4C
:1030C80000283FF475AF012672E700BF004402589C
:1030D800002B81D00126236813F4801F06D04F4AA5
:1030E800136D23F00043616F0B431365236813F0DE
:1030F800805F07D0494A136923F48043D4F8B81095
:103108000B431361236813F4001F06D0434A136D61
:1031180023F08073E16E0B431365236813F0804F2F
:1031280009D03E4B1A6922F400421A611A69D4F890
:10313800BC100A431A612368002B06DA374AD36C9D
:1031480023F04053616D0B43D364236813F4000FDD
:1031580007D0324A536D23F44003D4F88C100B4344
:103168005365636813F0010F21D1636813F0020FF0
:1031780026D1636813F0040F2BD1636813F0080F8E
:1031880030D1636813F0100F35D1636813F0200F46
:103198003AD106B101263046F8BD01269BE71F4A01
:1031A800D36A43F40033D36216E72E4693E700212F
:1031B80004F10800FFF7E2F90028D6D00646D4E764
:1031C800012104F10800FFF7D9F90028D1D00646FB
:1031D800CFE7022104F10800FFF7D0F90028CCD08E
:1031E8000646CAE7002104F12800FFF74DFA002837
:1031F800C7D00646C5E7012104F12800FFF744FAC5
:103208000028C2D00646C0E7022104F12800FFF7D3
:103218003BFA0028BDD00646BBE700BF0044025871
:1032280008B5FFF765F9054B1B6AC3F30213044A97
:10323800D35C03F01F03D84008BD00BF0044025808
:10324800DC4F00082DE9F0410446864B9D6A9E6AD2
:10325800C6F30536D86AC0F30010DB6BC3F3CC03A2
:1032680003FB00F0FDF7EAF8002E00F0F58005F00A
:1032780003050746012D79D0022D00F0CB800DB350
:103288003046FDF7DBF801467748FDF7E3F90546D8
:10329800744B986BC0F30800FDF7D0F806464FF062
:1032A80064513846FDF722F901463046FDF716F815
:1032B8004FF07E51FDF712F801462846FDF716F942
:1032C800054674E0674B1B6813F0200F2CD0DFF81D
:1032D8009481D8F80030C3F3C1036448D840FDF79F
:1032E800ADF805463046FDF7A9F801462846FDF732
:1032F800B1F90546D8F83800C0F30800FDF79EF884
:1033080006464FF064513846FDF7F0F8014630465E
:10331800FCF7E4FF4FF07E51FCF7E0FF014628463A
:10332800FDF7E4F8054642E03046FDF787F8014628
:103338004F48FDF78FF905464A4B986BC0F30800D4
:10334800FDF77CF806464FF064513846FDF7CEF895
:1033580001463046FCF7C2FF4FF07E51FCF7BEFF36
:1033680001462846FDF7C2F8054620E03046FDF73D
:1033780065F801463C48FDF76DF90546394B986BF1
:10338800C0F30800FDF75AF806464FF06451384676
:10339800FDF7ACF801463046FCF7A0FF4FF07E5130
:1033A800FCF79CFF01462846FDF7A0F805462D4E80
:1033B800B06BC0F34620FDF741F84FF07E51FCF7A3
:1033C8008DFF01462846FDF745F9FDF7DFF9206036
:1033D800B06BC0F30640FDF731F84FF07E51FCF7B3
:1033E8007DFF01462846FDF735F9FDF7CFF9606006
:1033F800B06BC0F30660FDF721F84FF07E51FCF783
:103408006DFF01462846FDF725F9FDF7BFF9A060D5
:10341800BDE8F0813046FDF711F801461548FDF783
:1034280019F905460F4B986BC0F30800FDF706F82D
:1034380006464FF064513846FDF758F801463046C5
:10344800FCF74CFF4FF07E51FCF748FF0146284639
:10345800FDF74CF80546AAE7002323606360A360E4
:10346800D6E700BF004402580024744A0090D003F5
:103478000024744C20BCBE4B2DE9F0410446864B19
:103488009D6A9E6AC6F30556D86AC0F300205B6C35
:10349800C3F3CC0303FB00F0FCF7D0FF002E00F0D1
:1034A800F58005F003050746012D79D0022D00F0BF
:1034B800CB800DB33046FCF7C1FF01467748FDF7D6
:1034C800C9F80546744B186CC0F30800FCF7B6FF42
:1034D80006464FF064513846FDF708F80146304675
:1034E800FCF7FCFE4FF07E51FCF7F8FE014628463B
:1034F800FCF7FCFF054674E0674B1B6813F0200FD0
:103508002CD0DFF89481D8F80030C3F3C1036448A5
:10351800D840FCF793FF05463046FCF78FFF01467D
:103528002846FDF797F80546D8F84000C0F308008C
:10353800FCF784FF06464FF064513846FCF7D6FF87
:1035480001463046FCF7CAFE4FF07E51FCF7C6FE36
:1035580001462846FCF7CAFF054642E03046FCF71C
:103568006DFF01464F48FDF775F805464A4B186C44
:10357800C0F30800FCF762FF06464FF06451384676
:10358800FCF7B4FF01463046FCF7A8FE4FF07E5129
:10359800FCF7A4FE01462846FCF7A8FF054620E0F4
:1035A8003046FCF74BFF01463C48FDF753F805460B
:1035B800394B186CC0F30800FCF740FF06464FF083
:1035C80064513846FCF792FF01463046FCF786FE08
:1035D8004FF07E51FCF782FE01462846FCF786FF35
:1035E80005462D4E306CC0F34620FCF727FF4FF000
:1035F8007E51FCF773FE01462846FDF72BF8FDF7D0
:10360800C5F82060306CC0F30640FCF717FF4FF098
:103618007E51FCF763FE01462846FDF71BF8FDF7CF
:10362800B5F86060306CC0F30660FCF707FF4FF038
:103638007E51FCF753FE01462846FDF70BF8FDF7CF
:10364800A5F8A060BDE8F0813046FCF7F7FE01461A
:103658001548FCF7FFFF05460F4B186CC0F3080030
:10366800FCF7ECFE06464FF064513846FCF73EFF87
:1036780001463046FCF732FE4FF07E51FCF72EFE35
:1036880001462846FCF732FF0546AAE700232360D7
:103698006360A360D6E700BF004402580024744A60
:1036A8000090D0030024744C20BCBE4B026852E842
:1036B800003F23F4907342E800310029F6D10268F4
:1036C80002F1080353E8001F0D4B0B40083242E893
:1036D80000310029F3D1C36E012B06D02023C0F896
:1036E8008C300023C36643677047026852E8003F86
:1036F80023F0100342E800310029F6D1EEE700BFBD
:10370800FEFFFFEF704708B5026852E8003F23F05C
:10371800400342E800310029F6D12023C0F8883060
:1037280000238367FFF7EEFF08BD704708B5806B7D
:103738000023A0F85E30A0F85630FFF7F6FF08BD6A
:103748007047000070B504460168CB6908688D6849
:1037580040F60F021A4008D113F0200F05D010F0E0
:10376800200F34D115F0805F31D12AB18B4A2A401D
:1037780033D18B4E304230D1E26E012A00F0C68040
:1037880013F4801F03D015F4800F40F09B8113F0D1
:10379800800F07D010F0800F40F09B8115F4000FC8
:1037A80040F0978113F0400F03D010F0400F40F025
:1037B800978113F4000F03D010F0804F40F09481EC
:1037C80013F0807F02D00028C0F2928170BD636F31
:1037D800002BFBD020469847F8E713F0010F09D0DB
:1037E80010F4807F06D001260E62D4F89010314381
:1037F800C4F8901013F0020F0BD015F0010F08D089
:10380800216802260E62D4F8901041F00401C4F831
:10381800901013F0040F0BD015F0010F08D0216899
:1038280004260E62D4F8901041F00201C4F89010FA
:1038380013F0080F0BD010F0200F00D13AB1226816
:1038480008211162D4F890200A43C4F8902013F498
:10385800006F0CD010F0806F09D022684FF400611F
:103868001162D4F8902042F02002C4F89020D4F8D5
:103878009020002AAAD013F0200F09D010F0200FB2
:1038880002D115F0805F03D0636F0BB120469847D3
:10389800D4F8902023689B6813F0400F02D112F0EF
:1038A800280F2CD02046FFF701FF23689B6813F0F0
:1038B800400F20D0226802F1080353E8003F23F0AC
:1038C8004003083242E800310029F3D1D4F88030AF
:1038D8006BB1344A1A65D4F88000FDF7DDFD002885
:1038E8003FF474AFD4F88000036D98476EE7204624
:1038F800FFF71BFF6AE72046FFF717FF66E720463A
:10390800FFF713FF0023C4F890305FE713F0100FA0
:103918003FF436AF10F0100F3FF432AF10230B62B4
:1039280023689B6813F0400F00F09280D4F8802041
:1039380013681D481D498B4218BF834238D018317F
:103948008B4235D018318B4232D018318B422FD070
:1039580018318B422CD018318B4229D018318B4228
:1039680026D001F556718B4222D018318B421FD0D8
:1039780018318B421CD018318B4219D018318B4228
:1039880016D018318B4213D018318B4210D0183111
:103998008B420DD05B689BB20CE000BF01000010A9
:1039A80020010004353700081000024028000240BA
:1039B8005B689BB2002B3FF409AFB4F85C109942E6
:1039C8007FF604AFA4F85E30D369B3F5807F32D0B8
:1039D800226852E8003F23F4807342E8003100294E
:1039E800F6D1226802F1080353E8003F23F00103EF
:1039F800083242E800310029F3D1226802F10803B5
:103A080053E8003F23F04003083242E80031002920
:103A1800F3D12023C4F88C300023E366226852E8EF
:103A2800003F23F0100342E800310029F6D1D4F812
:103A38008000FDF791FB02232367B4F85C10B4F80B
:103A48005E309BB2C91A89B22046FFF779FEBDE6FF
:103A5800B4F85C10B4F85E309BB2C91A89B2B4F8F5
:103A68005E309BB2002B3FF4B1AE00293FF4AEAEFE
:103A7800226852E8003F23F4907342E8003000289F
:103A8800F6D1226802F1080353E8000F1A4B0340ED
:103A9800083242E800300028F3D12023C4F88C30E3
:103AA8000023E3666367226852E8003F23F01003AF
:103AB80042E800300028F6D1022323672046FFF7AA
:103AC8003FFE83E64FF480130B62204600F0EEFFC2
:103AD8007CE6A36F002B3FF479AE2046984775E645
:103AE8002046FFF710FE71E6204600F0E1FF6DE684
:103AF800204600F0DCFF69E6FEFFFFEF08B5B0F8EE
:103B08006030D0F88C20222A05D00268936943F0EF
:103B18000803936108BD0268516ADBB2826D0B40ED
:103B28001370836D01338365B0F85E309BB2013B3F
:103B38009BB2A0F85E30B0F85E309BB2002BE9D1A2
:103B4800026852E8003F23F4907342E800310029EC
:103B5800F6D1026802F1080353E8003F23F001039D
:103B6800083242E800310029F3D12023C0F88C3014
:103B78000023436703670368164A93420CD05B68C7
:103B880013F4000F08D0026852E8003F23F0806366
:103B980042E800310029F6D1C36E012B16D100236B
:103BA800C366026852E8003F23F0100342E8003180
:103BB8000029F6D10368DA6912F0100F01D010223B
:103BC8001A62B0F85C10FFF7BBFDA3E701F0D4F868
:103BD800A0E700BF000C005808B5B0F86020D0F886
:103BE8008C30222B05D00268936943F00803936157
:103BF80008BD03685B6A816D13400B80836D0233D7
:103C08008365B0F85E309BB2013B9BB2A0F85E3092
:103C1800B0F85E309BB2002BEAD1026852E8003F50
:103C280023F4907342E800310029F6D1026802F1CA
:103C3800080353E8003F23F00103083242E800314B
:103C48000029F3D12023C0F88C3000234367036791
:103C58000368164A93420CD05B6813F4000F08D02F
:103C6800026852E8003F23F0806342E800310029EF
:103C7800F6D1C36E012B16D10023C366026852E841
:103C8800003F23F0100342E800310029F6D1036811
:103C9800DA6912F0100F01D010221A62B0F85C1025
:103CA800FFF74EFDA4E701F067F8A1E7000C005804
:103CB8002DE9F843B0F860600368DD69D3F8009037
:103CC800D3F80880D0F88C20222A05D09A6942F0CF
:103CD80008029A61BDE8F8830446B0F8687008E005
:103CE800D4F89030002B4CD1B4F85E309BB2002B46
:103CF8004ED0002F00F0988015F0200F00F094802F
:103D08002368596AF3B2A26D0B401370A36D013397
:103D1800A365B4F85E309BB2013B9BB2A4F85E3059
:103D28002368DD6915F0070FDED015F0010F09D003
:103D380019F4807F06D001221A62D4F89030134318
:103D4800C4F8903015F0020F0BD018F0010F08D00E
:103D5800236802221A62D4F8903043F00403C4F8AE
:103D6800903015F0040FBBD018F0010FB8D02368BD
:103D780004221A62D4F8903043F00203C4F8903059
:103D8800AEE72046FFF7D1FC0023C4F89030ABE73C
:103D9800226852E8003F23F4807342E8003100298A
:103DA800F6D1226802F1080353E8001F304B0B409C
:103DB800083242E800310029F3D12023C4F88C30BE
:103DC80000236367236723682A4A934203D05B680A
:103DD80013F4000F06D1E36E012B0DD0204600F03E
:103DE800CBFF86E7226852E8003F23F0806342E871
:103DF80000310029F6D1EEE70023E366226852E895
:103E0800003F23F0100342E800310029F6D123686F
:103E1800DA6912F0100F01D010221A62B4F85C109F
:103E28002046FFF78DFC64E7B4F85E309BB2002BA8
:103E38003FF450AFB4F868209A427FF64BAF22683F
:103E480002F1080353E8003F23F08053083242E8A8
:103E580000310029F3D1084B6367226852E8003F1C
:103E680043F0200342E800310029F6D132E700BFD1
:103E7800FEFFFFEF000C0058053B00082DE9F84352
:103E8800B0F860600368DD69D3F80090D3F8088063
:103E9800D0F88C20222A05D09A6942F008029A614B
:103EA800BDE8F8830446B0F8687008E0D4F89030AC
:103EB800002B4BD1B4F85E309BB2002B4DD0002FB5
:103EC80000F0978015F0200F00F0938023685B6A5C
:103ED800A26D33401380A36D0233A365B4F85E303E
:103EE8009BB2013B9BB2A4F85E302368DD6915F0F4
:103EF800070FDFD015F0010F09D019F4807F06D025
:103F080001221A62D4F890301343C4F8903015F0A7
:103F1800020F0BD018F0010F08D0236802221A6292
:103F2800D4F8903043F00403C4F8903015F0040F2F
:103F3800BCD018F0010FB9D0236804221A62D4F853
:103F4800903043F00203C4F89030AFE72046FFF703
:103F5800ECFB0023C4F89030ACE7226852E8003F3D
:103F680023F4807342E800310029F6D1226802F177
:103F7800080353E8001F304B0B40083242E8003179
:103F88000029F3D12023C4F88C300023636723670A
:103F980023682A4A934203D05B6813F4000F06D1C2
:103FA800E36E012B0DD0204600F0E6FE87E722687D
:103FB80052E8003F23F0806342E800310029F6D13F
:103FC800EEE70023E366226852E8003F23F010037F
:103FD80042E800310029F6D12368DA6912F0100F9F
:103FE80001D010221A62B4F85C102046FFF7A8FB33
:103FF80065E7B4F85E309BB2002B3FF451AFB4F8DC
:1040080068209A427FF64CAF226802F1080353E811
:10401800003F23F08053083242E800310029F3D1F1
:10402800074B6367226852E8003F43F0200342E8E9
:1040380000310029F6D133E7FEFFFFEF000C0058EE
:10404800E13B0008D0F88820D0F88C001043704776
:1040580070B586B0044601688368026913434269F3
:104068001343C26913430868884A024013430B602C
:104078002268536823F44053E1680B435360A169F5
:104088002268834B9A4201D0236A19439068814B76
:1040980003400B4393602268D36A23F00F03616ADD
:1040A8000B43D36222687C4B9A4221D07B4B9A42C5
:1040B80000F08C807A4B9A4200F0A280794B9A42A9
:1040C80000F0B580784B9A4200F0C880774B9A424E
:1040D80000F0F480764B9A4200F01981754B9A42B1
:1040E80000F02C816A4B9A4200F03F81802333E034
:1040F800714B5B6D03F03803282B65D8DFE813F0AC
:1041080029006400640064006400640064006400C2
:104118004D0164006400640064006400640064008D
:104128002B006400640064006400640064006400A0
:104138005E0064006400640064006400640064005D
:10414800600064006400640064006400640064004B
:104158006200012300E008234D498A4200F02F81C4
:10416800E069B0F5004F00F0AF81202B00F2078224
:10417800202B00F25182DFE813F01E0224024F02C6
:104188004F0227024F024F024F022C024F024F02EA
:104198004F024F024F024F024F0231024F024F02AD
:1041A8004F024F024F024F024F024F024F024F027F
:1041B8004F024F024F024F024F023D021023CBE73E
:1041C8002023C9E74023C7E78023C5E73A4B5B6D47
:1041D80003F00703052B11D8DFE813F00600E10010
:1041E80008000A000C000E000023B5E70823B3E717
:1041F8001023B1E72023AFE74023ADE78023ABE7E7
:104208002D4B5B6D03F00703052B0ED8DFE803F099
:1042180003C90507090B00239EE708239CE7102321
:104228009AE7202398E7402396E7802394E7224BD8
:104238005B6D03F00703052B0ED8DFE803F003B42A
:104248000507090B002387E7082385E7102383E781
:10425800202381E740237FE780237DE7164B5B6DB2
:1042680003F00703052B0ED8DFE803F0039F0507CB
:10427800090B002370E708236EE710236CE720235F
:104288006AE7402368E7802366E700BFF369FFCF4A
:10429800000C0058FFF4FF110010014000440040DA
:1042A80000480040004C004000500040001401400D
:1042B80000780040007C0040004402587D4B5B6D54
:1042C80003F03803282B20D8DFE803F0151F1F1F41
:1042D8001F1F1F1F711F1F1F1F1F1F1F171F1F1F9C
:1042E8001F1F1F1F191F1F1F1F1F1F1F1B1F1F1FE0
:1042F8001F1F1F1F1D0001232EE708232CE7102373
:104308002AE7202328E7402326E7802324E7694B70
:104318005B6D03F00703052B0ED8DFE803F0034AB3
:104328000507090B002317E7082315E7102313E7F0
:10433800202311E740230FE780230DE75D4B5B6DDA
:1043480003F00703052B0ED8DFE803F00335050754
:10435800090B002300E70823FEE61023FCE62023D0
:10436800FAE64023F8E68023F6E603F50E339B6D64
:1043780003F00703052B0ED8DFE803F0031F05073A
:10438800090B0223E8E60823E6E61023E4E62023E7
:10439800E2E64023E0E68023DEE60423DCE60423AD
:1043A800DAE60423D8E60423D6E60423D4E6042375
:1043B800D2E60423D0E60423CEE60423CCE6202B61
:1043C80027D8022BC0F01A81023B1E2B00F218815D
:1043D800DFE813F050001601560016011601160109
:1043E8005B001601160116011601160116011601C9
:1043F80060001601160116011601160116011601B4
:1044080016011601160116011601160116011601EC
:104418006C00402B2CD14FF40040626A264B33F8D5
:104428001220B0FBF2F3656805EB4501994200F2F2
:10443800E980B3EB053F00F2E780002633463146BA
:10444800FCF7C4F9090241EA106100026B08C018C0
:104458002A46334641F10001FCF7B8F9A0F540724D
:10446800164B9A4200F2D2802368D8603046D4E0D6
:104478000120D2E0FEF7D4FE0028CED10020CCE007
:1044880003A8FEF7DFFE0498F6E76846FEF7F4FF98
:104498000198F1E7074B1B6813F0200F08D0054B74
:1044A8001B68C3F3C1030648D840E5E70548B4E7ED
:1044B8000348B2E700440258EC4F0008FFFC0F0025
:1044C8000090D00300093D00202B15D8202B00F2C6
:1044D8009F80DFE803F031379D9D3A9D9D9D3F9D6C
:1044E8009D9D9D9D9D9D449D9D9D9D9D9D9D9D9D4D
:1044F8009D9D9D9D9D9D5000402B1BD1626A4D4BFB
:1045080033F81230B0FBF3F06268530803EB400055
:10451800B0FBF2F0A0F110024FF6EF739A4279D88F
:1045280083B223F00F03C0F3420018432368D86016
:10453800002072E0012070E0FDF7FCFF0028DDD1CB
:1045480000206AE0FEF708F8F8E703A8FEF77AFE0D
:104558000498F3E76846FEF78FFF0198EEE7364BBD
:104568001B6813F0200F08D0334B1B68C3F3C1033B
:104578003248D840E2E73248C0E73048BEE7402B2F
:1045880017D14FF40040626A2A4B33F81230B0FB5F
:10459800F3F0636800EB5300B0FBF3F0A0F11002F6
:1045A8004FF6EF739A4242D8236880B2D860002051
:1045B80033E0012031E0FDF7BDFF0028E3D1002002
:1045C8002BE0FDF7C9FFF8E703A8FEF73BFE0498C8
:1045D800F3E76846FEF750FF0198EEE7164B1B68B5
:1045E80013F0200F08D0144B1B68C3F3C103134802
:1045F800D840E2E71248C6E71048C4E701200CE0BB
:1046080001200AE0012008E0012006E0012004E082
:10461800012002E0012000E001200123A4F86A3013
:10462800A4F8683000236367A36706B070BD012053
:10463800F3E700BFEC4F0008004402580090D00395
:1046480000093D00836A13F0010F06D00268536821
:1046580023F40033C16A0B435360836A13F0020FDB
:1046680006D00268536823F48033016B0B43536010
:10467800836A13F0040F06D00268536823F480237A
:10468800416B0B435360836A13F0080F06D002682E
:10469800536823F40043816B0B435360836A13F020
:1046A800100F06D00268936823F48053C16B0B4344
:1046B8009360836A13F0200F06D00268936823F48E
:1046C8000053016C0B439360836A13F0400F0AD0C8
:1046D8000268536823F48013416C0B435360436CA6
:1046E800B3F5801F0BD0836A13F0800F06D00268E1
:1046F800536823F40023C16C0B435360704702686E
:10470800536823F4C003816C0B435360EBE72DE936
:10471800F84305460F4616469946DDF820802C6872
:10472800E46937EA04030CBF4FF0010C4FF0000CAA
:10473800B44532D1B8F1FF3FF1D0FCF77FFCA0EBD4
:10474800090040452CD8B8F1000F2BD02B681A6807
:1047580012F0040FE3D0DA6912F0080F11D1DA6908
:1047680012F4006FDBD04FF400621A622846FEF79D
:104778009DFF2023C5F89030002385F8843003205E
:104788000CE008241C622846FEF790FFC5F890400C
:10479800002385F88430012000E00020BDE8F8837C
:1047A8000320FBE70320F9E730B583B00446002374
:1047B800C0F89030FCF742FC05462268126812F0F7
:1047C800080F10D123681B6813F0040F28D1202389
:1047D800C4F88830C4F88C300020E066206784F87C
:1047E800840003B030BD6FF07E430093034600227F
:1047F8004FF400112046FFF78AFF0028E2D0226814
:1048080052E8003F23F0800342E800310029F6D146
:104818002023C4F88830002384F884300320E0E79C
:104828006FF07E4300932B4600224FF48001204610
:10483800FFF76DFF0028CAD0226852E8003F23F432
:10484800907342E800310029F6D1226802F108038A
:1048580053E8003F23F00103083242E80031002901
:10486800F3D12023C4F88C30002384F8843003204B
:10487800B7E778B310B50446D0F888300BB32423D3
:10488800C4F888302268136823F0010313602046B7
:10489800FFF7DEFB012813D0A36ABBB9226853686F
:1048A80023F4904353602268936823F02A039360AB
:1048B8002268136843F0010313602046FFF774FF72
:1048C80010BD80F88430FCF74FFAD8E72046FFF790
:1048D800B9FEE3E70120704710B48165A0F85C20B9
:1048E800A0F85E20002343678368B3F5805F06D095
:1048F800A3B9036973B9FF23A0F8603014E0036912
:1049080023B940F2FF13A0F860300DE0FF23A0F8B0
:10491800603009E07F23A0F8603005E0B3F1805FE4
:104928002DD00023A0F860300023C0F89030222357
:10493800C0F88C30016801F1080353E8003F43F0E8
:104948000103083141E80034002CF3D1436EB3F180
:10495800005F1ED08368B3F5805F42D0294B436760
:104968000369002B43D0026852E8003F43F4907378
:1049780042E800310029F6D1002010BC70470369D5
:104988001BB97F23A0F86030CEE73F23A0F8603042
:10499800CAE7B0F868309342DCD88368B3F5805F23
:1049A80019D0194B4367036943B1026852E8003FC5
:1049B80043F4807342E800310029F6D1026802F11D
:1049C800080353E8003F43F08053083242E80031BF
:1049D8000029F3D1D0E70369002BE2D10B4B4367E1
:1049E800E1E70369002BB9D1094B4367B8E70268CF
:1049F80052E8003F43F0200342E800310029F6D195
:104A0800BAE700BF053B0008B93C0008853E00082E
:104A1800E13B000838B5D0F88C30202B19D1002A9A
:104A280018BF002917D00023C36603680B4CA342A4
:104A38000CD05B6813F4000F08D0046854E8003FFA
:104A480043F0806344E80035002DF6D1FFF744FFBA
:104A580000E0022038BD0120FCE700BF000C005830
:104A6800436E2BB90123A0F86A30A0F8683070476C
:104A780030B403689A68C2F342629968490F094DD5
:104A88006B5C1B01084C615C93FBF1F3A0F86A3086
:104A9800AB5C1B01A25C93FBF2F3A0F8683030BC5E
:104AA800704700BF0C50000804500008704770475A
:104AB800704790F88430012B18D0012380F8843097
:104AC8002423C0F8883003681A68196821F00101A6
:104AD800196022F000520023436601680A60202210
:104AE800C0F8882080F88430184670470220704744
:104AF80038B590F88430012B1DD00446012380F886
:104B080084302423C0F8883003681D681A6822F0AE
:104B180001021A600268936823F0604319439160A8
:104B2800FFF79EFF23681D602023C4F8883000200B
:104B380084F8840038BD0220FCE738B590F884304A
:104B4800012B1DD00446012380F884302423C0F8AB
:104B5800883003681D681A6822F001021A6002682A
:104B6800936823F0606319439160FFF779FF236826
:104B78001D602023C4F88830002084F8840038BDE4
:104B88000220FCE710B504460420FCF7D5FA014BD7
:104B98001C6010BDF004002410B44FF0E0225469EA
:104BA8000B4B1B6800FB03FC9369002104E0E01A2F
:104BB80002441144614509D21A464FF0E0239B692B
:104BC8009A42FAD0F3D9D21A1144F3E710BC7047CD
:104BD800F004002438B50546002404E04FF47A7048
:104BE800FFF7DAFF0134A542F8D838BD2B4B5B69D3
:104BF80013F4003F13D1BFF34F8FBFF36F8F274BD1
:104C08000022C3F85022BFF34F8FBFF36F8F5A694A
:104C180042F400325A61BFF34F8FBFF36F8F1F4BBF
:104C28005B6913F4803F31D110B41C4B0022C3F8E8
:104C38008420BFF34F8FD3F88040C4F34E3000E098
:104C48001846C4F3C90243F6E07303EA401343EA83
:104C580082731249C1F860321346013A002BF2D12F
:104C6800431E0028ECD1BFF34F8F4B6943F48033C8
:104C78004B61BFF34F8FBFF36F8F084AD2F89C3256
:104C880043F00403C2F89C3210BC7047034AD2F8C0
:104C98009C3243F00403C2F89C32704700ED00E0F8
:104CA80070B59EB00446084611461A462F4BDD687B
:104CB80025F00405DD60002501952D4DEE6A26F0EE
:104CC8000106EE62ED6A05F0010501959D6945F45E
:104CD80040459D619B6903F440430193019B234B2D
:104CE8009B6913F4005FFAD0012303934FF48033D8
:104CF8000493002306930A9302250C950D950F94AF
:104D08000E901091119214930823139303A8FCF7A3
:104D18003FFE00B1FEE73F231693032317930023BA
:104D280018930823199340231B934FF480621C9215
:104D38001A9350231D93022116A8FDF78FFA00B18C
:104D4800FEE70C4B1A6842F080021A60D3F8F42090
:104D580042F00202C3F8F420D3F8F43003F002035F
:104D68000293029BFCF776F91EB070BD004802580A
:104D780000040058004402580268184B9A4200D0B8
:104D88007047174A1388B2F90020002AF8DB13F499
:104D9800804F0CD0134A12780A2A03D0104B0022F5
:104DA8001A807047104A1A430D4B1A8070470D4AF3
:104DB80012780D2A0DD0C3F30D010C48425401336B
:104DC8009BB2074A1380C72BDAD9134600221A80F0
:104DD800D6E743F48043024A13807047001001402D
:104DE800BC050024C00500240080FFFFF404002453
:104DF80070B50D4E0D4D761BB61006D0002455F833
:104E0800043B01349847A642F9D1094E094D761B57
:104E180000F0D4F8B61006D0002455F8043B01344D
:104E28009847A642F9D170BD2050000820500008CC
:104E38002850000820500008830730B548D0541E79
:104E4800002A3FD0CAB2034601E0013C3AD303F836
:104E5800012B9D07F9D1032C2DD9CDB245EA0525A3
:104E68000F2C45EA054536D9A4F1100222F00F0CA3
:104E780003F1200EE6444FEA121C03F1100242E946
:104E8800045542E9025510327245F8D10CF101027D
:104E980014F00C0F03EB021204F00F0C13D0ACF15A
:104EA800040323F003030433134442F8045B9342DE
:104EB800FBD10CF003042CB1CAB21C4403F8012B3B
:104EC8009C42FBD130BD64461346002CF4D1F9E76F
:104ED80003461446BFE71A46A446E0E7024B13B15F
:104EE800024800F005B8704700000000054F0008B0
:104EF800002301461A46184600F01AB838B5084B80
:104F0800084D5B1B9C1007D0043B1D44013C55F821
:104F180004399847002CF9D1BDE8384000F054B85E
:104F28002C50000828500008704700BF704700BF89
:104F38002DE9F047DFF87CA00646DAF8000098462D
:104F48000F469146FFF7F0FF1B4B1B68D3F848410B
:104F580024B365681F2D26DC5EB96B1C0235DAF8B0
:104F68000000636044F82570FFF7E0FF0020BDE80B
:104F7800F08704EB85010123C1F88890D4F88821D3
:104F8800AB401A43022EC4F88821C1F80881E4D145
:104F9800D4F88C211343C4F88C31DEE703F5A674EA
:104FA800C3F84841D5E7DAF80000FFF7BFFF4FF034
:104FB800FF30DCE73804002414500008F8B500BFBF
:104FC800F8BC08BC9E467047F8B500BFF8BC08BCE2
:044FD8009E4670473A
:104FDC000000000001020304010203040607080993
:104FEC00010002000400060008000A000C0010007A
:104FFC0020004000800000010804020408010101A7
:0C500C0001010103070100001000002456
:08501800ECB7FF7F010000006E
:08502000E54E0008BD02000886
:0450280099020008E1
:10502C000090D0030090D00301000000100000009D
:10503C0000000000FC02002464030024CC030024C4
:10504C000000000000000000000000000000000054
:10505C000000000000000000000000000000000044
:10506C000000000000000000000000000000000034
:10507C000000000000000000000000000000000024
:10508C000000000000000000000000000000000014
:10509C000000000000000000000000000000000004
:1050AC0000000000000000000000000000000000F4
:1050BC0000000000000000000000000000000000E4
:1050CC0000000000000000000000000000000000D4
:1050DC0000000000000000000100000000000000C3
:1050EC000E33CDAB34126DE6ECDE05000B00000088
:1050FC0000000000000000000000000000000000A4
:10510C000000000000000000000000000000000093
:10511C000000000000000000000000000000000083
:10512C000000000000000000000000000000000073
:0C545C000000000000000000C405002457
:0400000508000F2DB3
:00000001FF
