:020000040800F2
:1000000000000824D90900080509000807090008AC
:10001000090900080B0900080D090008000000008C
:100020000000000000000000000000000F090008B0
:100030001109000800000000130900081509000854
:10004000290A0008290A0008290A0008290A0008C4
:10005000290A0008290A0008290A0008290A0008B4
:10006000290A0008290A0008290A0008290A0008A4
:10007000290A0008290A0008290A0008290A000894
:10008000290A0008290A0008290A0008290A000884
:10009000290A0008290A0008290A0008290A000874
:1000A000290A0008290A0008290A0008290A000864
:1000B000290A0008290A0008290A0008290A000854
:1000C000290A0008290A0008290A0008290A000844
:1000D000290A0008290A0008290A0008290A000834
:1000E000290A0008290A000800000000290A00085F
:1000F000290A0008290A0008290A0008290A000814
:10010000290A0008290A0008290A0008290A000803
:10011000290A0008290A0008290A0008290A0008F3
:10012000290A0008290A0008290A0008290A0008E3
:10013000290A0008290A0008290A0008290A0008D3
:1001400000000000000000000000000000000000AF
:10015000290A0008290A0008290A0008290A0008B3
:10016000290A0008290A0008290A0008290A0008A3
:10017000290A0008290A0008290A000800000000CE
:10018000290A0008290A0008290A0008290A000883
:10019000290A0008290A0008290A0008290A000873
:1001A000290A0008290A0008290A0008290A000863
:1001B000290A0008290A0008290A0008290A000853
:1001C000290A0008290A0008290A0008290A000843
:1001D000290A0008290A0008290A0008290A000833
:1001E000290A0008290A0008290A0008290A000823
:1001F000290A0008290A0008290A0008290A000813
:10020000290A0008290A0008290A0008290A000802
:10021000290A0008290A0008290A0008290A0008F2
:10022000290A0008290A0008290A0008000000001D
:10023000290A0008290A000800000000290A00080D
:10024000290A0008290A0008290A0008290A0008C2
:10025000290A0008290A0008290A0008290A0008B2
:10026000290A0008290A0008290A0008290A0008A2
:10027000290A0008290A0008290A000800000000CD
:10028000290A0008290A0008290A000800000000BD
:0802900000000000290A00082B
:1002980010B5054C237833B9044B13B10448AFF3B8
:1002A80000800123237010BD3C04002400000000DE
:1002B800DC19000808B5034B1BB103490348AFF329
:1002C800008008BD0000000040040024DC1900087C
:1002D80080F0004002E000BF81F0004142001FBFF3
:1002E8005FEA410392EA030F7FEA226C7FEA236CFC
:1002F8006AD04FEA1262D2EB1363C1BFD2184140F1
:1003080048404140B8BF5B42192B88BF704710F086
:10031800004F40F4000020F07F4018BF404211F029
:10032800004F41F4000121F07F4118BF494292EA91
:10033800030F3FD0A2F1010241FA03FC10EB0C00BD
:10034800C3F1200301FA03F100F0004302D549424A
:1003580060EB4000B0F5000F13D3B0F1807F06D3F7
:1003680040084FEA310102F10102FE2A51D2B1F1EF
:10037800004F40EBC25008BF20F0010040EA0300E4
:100388007047490040EB0000013A28BFB0F5000F64
:10039800EDD2B0FA80FCACF1080CB2EB0C0200FA1A
:1003A8000CF0AABF00EBC25052421843BCBFD04069
:1003B8001843704792F0000F81F4000106BF80F4E3
:1003C80000000132013BB5E74FEA41037FEA226CA6
:1003D80018BF7FEA236C21D092EA030F04D092F071
:1003E800000F08BF0846704790EA010F1CBF0020A5
:1003F800704712F07F4F04D1400028BF40F0004002
:10040800704712F100723CBF00F50000704700F021
:10041800004343F0FE4040F4000070477FEA226248
:1004280016BF08467FEA23630146420206BF5FEA19
:10043800412390EA010F40F4800070474FF0000319
:1004480004E000BF10F0004348BF40425FEA000CE0
:1004580008BF704743F0964301464FF000001CE088
:1004680050EA010208BF70474FF000030AE000BFDE
:1004780050EA010208BF704711F0004302D540421C
:1004880061EB41015FEA010C02BF8446014600208E
:1004980043F0B64308BFA3F18053A3F50003BCFAA9
:1004A8008CF2083AA3EBC25310DB01FA02FC634456
:1004B80000FA02FCC2F12002BCF1004F20FA02F25D
:1004C80043EB020008BF20F00100704702F1200250
:1004D80001FA02FCC2F1200250EA4C0021FA02F2B1
:1004E80043EB020008BF20EADC7070474FF0FF0CB6
:1004F8001CEAD0521EBF1CEAD15392EA0C0F93EAB1
:100508000C0F6FD01A4480EA010C400218BF5FEA52
:1005180041211ED04FF0006343EA501043EA5111C5
:10052800A0FB01310CF00040B1F5000F3EBF4900BF
:1005380041EAD3715B0040EA010062F17F02FD2AC3
:100548001DD8B3F1004F40EBC25008BF20F00100A6
:10055800704790F0000F0CF0004C08BF49024CEABD
:10056800502040EA51207F3AC2BFD2F1FF0340EA4F
:10057800C250704740F400004FF00003013A5DDCC0
:1005880012F1190FDCBF00F000407047C2F1000201
:10059800410021FA02F1C2F1200200FA02FC5FEAEE
:1005A800310040F1000053EA4C0308BF20EADC7038
:1005B800704792F0000F00F0004C02BF400010F4AA
:1005C800000F013AF9D040EA0C0093F0000F01F057
:1005D800004C02BF490011F4000F013BF9D041EA79
:1005E8000C018FE70CEAD15392EA0C0F18BF93EA7B
:1005F8000C0F0AD030F0004C18BF31F0004CD8D1A5
:1006080080EA010000F00040704790F0000F17BF2B
:1006180090F0004F084691F0000F91F0004F14D071
:1006280092EA0C0F01D142020FD193EA0C0F03D1C9
:100638004B0218BF084608D180EA010000F00040CC
:1006480040F0FE4040F40000704740F0FE4040F4A7
:10065800400070474FF0FF0C1CEAD0521EBF1CEA46
:10066800D15392EA0C0F93EA0C0F69D0A2EB030264
:1006780080EA010C49024FEA402037D04FF08053FE
:1006880043EA111143EA10130CF000408B4238BFC3
:100698005B0042F17D024FF4000C8B4224BF5B1AD1
:1006A80040EA0C00B3EB510F24BFA3EB510340EA1F
:1006B8005C00B3EB910F24BFA3EB910340EA9C00CD
:1006C800B3EBD10F24BFA3EBD10340EADC001B013D
:1006D80018BF5FEA1C1CE0D1FD2A3FF650AF8B42E1
:1006E80040EBC25008BF20F0010070470CF0004CEE
:1006F8004CEA50207F32C2BFD2F1FF0340EAC25019
:10070800704740F400004FF00003013A37E792F0D9
:10071800000F00F0004C02BF400010F4000F013A37
:10072800F9D040EA0C0093F0000F01F0004C02BF32
:10073800490011F4000F013BF9D041EA0C0195E79B
:100748000CEAD15392EA0C0F08D142027FF47DAF34
:1007580093EA0C0F7FF470AF084676E793EA0C0F24
:1007680004D14B023FF44CAF08466EE730F0004C22
:1007780018BF31F0004CCAD130F000427FF45CAFB2
:1007880031F000437FF43CAF5FE700BF42000ED278
:10079800B2F1FE4F0BD34FF09E03B3EB126209D4B4
:1007A8004FEA002343F0004323FA02F070474FF06A
:1007B8000000704712F1610F01D1420202D14FF0DF
:1007C800FF3070474FF00000704700BF10B584B08D
:1007D8000024009401940294039400F0EDF901239D
:1007E8008DF800308DF8014001941F228DF8082003
:1007F80087228DF809208DF80A408DF80B408DF876
:100808000C308DF80D308DF80E408DF80F4068468D
:1008180000F0F0F9042000F0DDF904B010BD72B664
:10082800FEE7000000B59DB04C22002109A801F0A8
:100838000FF82022002101A801F00AF8022000F098
:1008480009FA002300931E4BDA6A22F00102DA62E9
:10085800DB6A03F0010300931A4A936923F44043C7
:1008680043F480439361936903F440430093009BEE
:10087800144B9B6913F4005FFAD0022309930123F8
:100888000C9340230D930023129309A800F00CFA4F
:1008980088B93F230193002302930393049305939C
:1008A800069307930893012101A800F063FE20B97D
:1008B8001DB05DF804FBFFF7B2FFFFF7B0FF00BF04
:1008C800000400580048025808B5FFF77FFF00F001
:1008D800D1F8FFF7A7FFFEE782B0074BD3F8F42063
:1008E80042F00202C3F8F420D3F8F43003F0020314
:1008F8000193019B02B0704700440258FEE7FEE7EF
:10090800FEE7FEE7FEE770477047704708B500F05E
:10091800DFF808BD244B1B6803F00F03062B06D82D
:10092800214A136823F00F0343F0070313601F4B9A
:100938001A6842F001021A6000221A6119681C4AFA
:100948000A401A60184B1B6813F0080F06D0164AA5
:10095800136823F00F0343F007031360134B0022BF
:100968009A61DA611A62134999621349D962134983
:1009780019635A639963DA6319645A64196821F42C
:10098800802119601A660E4B1A680E4B1340B3F19A
:10099800005F03D20C4B0122C3F808210B4B43F232
:1009A800D2021A60704700BF00200052004402586B
:1009B8007FEDF6EA000202020000FF018002010159
:1009C8000010005C0000FFFF008000510040005252
:1009D800DFF834D0FFF79EFF0C480D490D4A00237D
:1009E80002E0D458C4500433C4188C42F9D30A4ADC
:1009F8000A4C002301E013600432A242FBD300F04A
:100A080003FFFFF761FF704700000824000000247F
:100A18003C040024141A00083C0400246004002448
:100A2800FEE70000104B1B780BB90120704710B58A
:100A380004464FF47A70B0FBF3F30C4A1068B0FB2D
:100A4800F3F000F0A5F868B90F2C01D901200AE0ED
:100A5800002221464FF0FF3000F064F8044B1C6080
:100A6800002000E0012010BD080000240000002440
:100A78000C00002410B5032000F042F800F06EFCD2
:100A88000F498B69C3F303230E4AD35C03F01F039A
:100A9800D8408B6903F00F03D35C03F01F0320FADF
:100AA80003F3094A1360094B18600F20FFF7BAFFD8
:100AB80010B10124204610BD0446FFF70DFFF9E7E9
:100AC80000440258F419000804000024000000241F
:100AD800034B1B78034A11680B441360704700BF2F
:100AE8000800002458040024014B1868704700BF10
:100AF80058040024014B1868000C70470010005C73
:100B08000649CB6823F4E0631B041B0C000200F4C5
:100B1800E0600343024A1A43CA60704700ED00E0F0
:100B28000000FA0500B5174BDB68C3F30223C3F1D5
:100B3800070CBCF1040F28BF4FF0040C03F1040E9E
:100B4800BEF1060F14D9033B4FF0FF3E0EFA0CFC22
:100B580021EA0C0199400EFA03F322EA0303194330
:100B6800002807DB0901C9B2074B19545DF804FBDB
:100B78000023E9E700F00F000901C9B2034B19543B
:100B8800F4E700BF00ED00E000E400E014ED00E051
:100B98000138B0F1807F0BD24FF0E0235861054A4D
:100BA800F02182F823100020986107221A6170470B
:100BB8000120704700ED00E0BFF35F8F044B5A6AD5
:100BC80022F480325A620022C3F89420704700BF92
:100BD80000ED00E040F00100054BC3F894005A6AAC
:100BE80042F480325A62BFF34F8FBFF36F8F704762
:100BF80000ED00E04278164BC3F898200378FBB16B
:100C08004368134AC2F89C30017BC37A1B0643EA47
:100C18000173817A43EAC143417B43EA8143817B83
:100C280043EA4143C17B43EA0143417A43EA012352
:100C3800017A43EA410301780B43C2F8A0307047B8
:100C4800034B0022C3F89C20C3F8A020704700BFC4
:100C580000ED00E0134BDB6813F0040F07D1114BD4
:100C6800DB6803F0070383421AD00120704710B5F0
:100C78000C4AD36823F007031843D060FFF734FF0A
:100C88000446084B5B6813F4005F07D1FFF72CFF9D
:100C9800001BB0F57A7FF4D9012000E0002010BDD8
:100CA8000020704700480258002800F0398338B502
:100CB8000446036813F0010F25D0944A136903F022
:100CC8003803926A102B15D0182B0FD06368B3F530
:100CD800803F3FD0002B53D18C4B1A6822F48032CE
:100CE8001A601A6822F480221A6038E002F00302BF
:100CF800022AEBD1854B1B6813F4003F03D06368CD
:100D0800002B00F00F83236813F0020F00F0A1807E
:100D18007E4A1369926A13F038035AD0182B55D0BB
:100D2800E368002B00F0DE8078490A6822F0190297
:100D380013430B60FFF7D8FE0546744B1B6813F08E
:100D4800040F40F0AD80FFF7CFFE401B0228F4D916
:100D58000320EEE26D4A136843F48033136063683E
:100D68002BB3FFF7C1FE0546684B1B6813F4003F21
:100D7800C9D1FFF7B9FE401B6428F5D90320D8E292
:100D8800B3F5A02F09D0614B1A6822F480321A609B
:100D98001A6822F480221A60E1E75C4B1A6842F470
:100DA80080221A601A6842F480321A60D7E7FFF787
:100DB8009BFE0546554B1B6813F4003FA3D0FFF775
:100DC80093FE401B6428F5D90320B2E212F0030F0A
:100DD800A6D14E4B1B6813F0040F03D0E368002B19
:100DE80000F0A282494A136823F01903E1680B4313
:100DF8001360FFF779FE0546444B1B6813F0040F98
:100E080006D1FFF771FE401B0228F5D9032090E2B6
:100E1800FFF770FE41F20303984212D82269402A74
:100E280007D03A494B6823F47C3343EA02334B60DA
:100E38000FE0364A536823F47C3343F4003353609D
:100E480007E0324A536823F0FE43216943EA01630D
:100E58005360236813F0100F00F088802B4A136941
:100E680003F03803926A082B56D0182B50D0E36948
:100E7800002B00F0B880254A136843F08003136004
:100E8800FFF732FE0546214B1B6813F4807F40F0C4
:100E98008880FFF729FE401B0228F4D9032048E286
:100EA800FFF728FE41F20303984212D82269402A2C
:100EB80007D016494B6823F47C3343EA02334B606E
:100EC800C7E7124A536823F47C3343F40033536072
:100ED800BFE70E4A536823F0FE43216943EA0163E2
:100EE8005360B6E7094A136823F001031360FFF75C
:100EF800FBFD0546054B1B6813F0040FA9D0FFF74F
:100F0800F3FD401B0228F5D9032012E200440258E1
:100F180002F00302012AAAD1A14B1B6813F4807FB7
:100F280003D0E369802B40F00182FFF7E3FD41F233
:100F38000303984212D8226A202A07D098494B689E
:100F480023F0F84343EA82634B600FE0944A536806
:100F580023F0F84343F08043536007E0904AD36896
:100F680023F07C53216A43EA0163D360236813F0BA
:100F7800080F60D06369002B49D0894A536F43F04A
:100F880001035367FFF7B0FD0546854B5B6F13F010
:100F9800020F50D1FFF7A8FD401B0228F5D9032006
:100FA800C7E1FFF7A7FD41F20303984212D8226A6E
:100FB800202A07D07A494B6823F0F84343EA826332
:100FC8004B60D3E7764A536823F0F84343F08043F5
:100FD8005360CBE7724AD36823F07C53216A43EA13
:100FE8000163D360C2E76E4A136823F0800313607D
:100FF800FFF77AFD05466A4B1B6813F4807FB5D06E
:10100800FFF772FD401B0228F5D9032091E1644ADD
:10101800536F23F001035367FFF766FD0546604BE6
:101028005B6F13F0020F06D0FFF75EFD401B02282E
:10103800F5D903207DE1236813F0200F29D0A36997
:101048009BB1574A136843F480531360FFF74CFD74
:101058000546534B1B6813F4005F1AD1FFF744FD94
:10106800401B0228F5D9032063E14D4A136823F495
:1010780080531360FFF738FD0546494B1B6813F48E
:10108800005F06D0FFF730FD401B0228F5D903208A
:101098004FE1236813F0040F21D1636A002B00F09D
:1010A80047813F4A126902F03802182A00F0EE80A0
:1010B800022B79D03A4A136823F080731360FFF744
:1010C80013FD0446364B1B6813F0007F00F0DC80EC
:1010D800FFF70AFD001B0228F4D9032029E1314A51
:1010E800136843F480731360FFF7FEFC05462D4B2D
:1010F8001B6813F4807F06D1FFF7F6FC401B6428B9
:10110800F5D9032015E1A368012B0AD00BBB244BAA
:101118001A6F22F001021A671A6F22F004021A6786
:1011280004E01F4A136F43F001031367A36833B346
:10113800FFF7DAFC05461A4B1B6F13F0020FACD110
:10114800FFF7D2FC401B41F288339842F3D90320C1
:10115800EFE0052B09D0124B1A6F22F001021A6733
:101168001A6F22F004021A67E0E70D4B1A6F42F07B
:1011780004021A671A6F42F001021A67D6E7FFF7EE
:10118800B3FC0546064B1B6F13F0020F85D0FFF723
:10119800ABFC401B41F288339842F3D90320C8E0E6
:1011A8000044025800480258694A136823F08073C3
:1011B8001360FFF799FC0546654B1B6813F0007F29
:1011C80006D0FFF791FC401B0228F5D90320B0E0B8
:1011D8005F4B996A5F4A0A40A16AE06A41EA0011D6
:1011E8000A439A62226B013AC2F30802616B013921
:1011F800490289B20A43A16B0139090401F4FE01CD
:101208000A43E16B0139090601F0FE410A431A63FA
:10121800DA6A22F00102DA62596B4F4A0A40A16C7D
:1012280042EAC1025A63DA6A22F00C02216C0A43CC
:10123800DA62DA6A22F00202616C0A43DA62DA6A76
:1012480042F48032DA62DA6A42F40032DA62DA6A46
:1012580042F48022DA62DA6A42F00102DA621A683B
:1012680042F080721A60FFF73FFC0446384B1B6857
:1012780013F0007F06D1FFF737FC001B0228F5D9D1
:10128800032056E0002054E0002052E0304A916AE2
:10129800106B012B4ED001F00303A26A93424BD18D
:1012A800C1F30511E36A994248D1C0F30802236BE0
:1012B800013B9A4244D1C0F34622636B013B9A42F8
:1012C80040D1C0F30642A36B013B9A423CD1C0F324
:1012D8000660E36B013B984238D11D4B5B6BC3F34F
:1012E800CC03A26C9A4201D1002022E0184AD36AAA
:1012F80023F00103D362FFF7F7FB0546FFF7F4FB82
:10130800A842FBD0124A516B134B0B40A16C43EA25
:10131800C1035363D36A43F00103D362002008E09A
:1013280001207047012004E0012002E0012000E0D4
:10133800002038BD0120FCE70120FAE70120F8E78A
:101348000120F6E70120F4E70120F2E70120F0E7A9
:10135800004402580CFCFFFF0700FFFFF8B57E4B66
:101368001B6903F03803102B00F0F280182B10D003
:1013780013B17A4C2046F8BD774B1B6813F0200F49
:1013880000F0E880744B1868C0F3C100744CC44086
:10139800F0E7714B9D6A05F003059C6AC4F30514D8
:1013A800D86A00F001005B6BC3F3CC0303FB00F0C9
:1013B800FFF744F80646002CDCD0012D76D0022D2C
:1013C80000F0A4800DB32046FFF738F801466548C1
:1013D800FFF740F90446604B186BC0F30800FFF7AD
:1013E8002DF805464FF064513046FFF77FF8014667
:1013F8002846FEF773FF4FF07E51FEF76FFF014658
:101408002046FFF773F8044671E0534B1B6813F04E
:10141800200F29D0504F3B68C3F3C1035048D84030
:10142800FFF70CF805462046FFF708F8014628465E
:10143800FFF710F90446386BC0F30800FEF7FEFF0B
:1014480005464FF064513046FFF750F801462846EC
:10145800FEF744FF4FF07E51FEF740FF014620465D
:10146800FFF744F8044642E02046FEF7E7FF01464E
:101478003D48FFF7EFF80446374B186BC0F30800F8
:10148800FEF7DCFF05464FF064513046FFF72EF8B3
:1014980001462846FEF722FF4FF07E51FEF71EFF59
:1014A80001462046FFF722F8044620E02046FEF7D2
:1014B800C5FF01462B48FFF7CDF80446264B186BAD
:1014C800C0F30800FEF7BAFF05464FF064513046F6
:1014D800FFF70CF801462846FEF700FF4FF07E5153
:1014E800FEF7FCFE01462046FFF700F804461A4BBB
:1014F8001B6BC3F34623581CFEF7A0FF014620468A
:10150800FFF7A8F8FFF742F9044633E72046FEF74D
:1015180095FF01461548FFF79DF804460E4B186BDA
:10152800C0F30800FEF78AFF05464FF064513046C5
:10153800FEF7DCFF01462846FEF7D0FE4FF07E514D
:10154800FEF7CCFE01462046FEF7D0FF0446CEE764
:10155800074C0FE7024C0DE70044025800093D0014
:101568000090D0030024744A0024744C20BCBE4B65
:1015780040787D01002800F0328170B50D460446A0
:101588009B4B1B6803F00F038B420BD2984A1368DE
:1015980023F00F030B431360136803F00F038B4210
:1015A80040F01F81236813F0040F0CD02269914B7F
:1015B8009B6903F070039A4205D98E498B6923F021
:1015C80070031A438A61236813F0080F0CD062690C
:1015D800884BDB6903F070039A4205D98549CB69CA
:1015E80023F070031A43CA61236813F0100F0CD05C
:1015F800A269804BDB6903F4E0639A4205D97D490F
:10160800CB6923F4E0631A43CA61236813F0200FFF
:101618000CD0E269774B1B6A03F070039A4205D934
:1016280074490B6A23F070031A430A62236813F0A3
:10163800020F0CD0E2686F4B9B6903F00F039A42CC
:1016480005D96C498B6923F00F031A438A61236813
:1016580013F0010F41D0674A936923F47063A168BE
:101668000B4393616368022B0AD0032B27D0012B0D
:101678002CD0604A126812F0040F06D10120ADE0A8
:10168800126812F4003F00F0AE805A490A6922F04D
:10169800070213430B61FFF727FA0646554B1B69F0
:1016A80003F038036268B3EBC20F16D0FFF71CFAD9
:1016B800801B41F288339842F0D903208EE04D4ACE
:1016C800126812F0007FE0D1012087E0494A1268D1
:1016D80012F4807FD9D1012080E0236813F0020F33
:1016E8000CD0E268434B9B6903F00F039A4205D282
:1016F80040498B6923F00F031A438A613C4B1B68EE
:1017080003F00F03AB420AD9394A136823F00F03D9
:101718002B431360136803F00F03AB4265D12368B2
:1017280013F0040F0CD02269324B9B6903F070034D
:101738009A4205D22F498B6923F070031A438A61B4
:10174800236813F0080F0CD062692A4BDB6903F099
:1017580070039A4205D22749CB6923F070031A43D4
:10176800CA61236813F0100F0CD0A269214BDB6902
:1017780003F4E0639A4205D21E49CB6923F4E0637F
:101788001A43CA61236813F0200F0CD0E269194B81
:101798001B6A03F070039A4205D216490B6A23F0BC
:1017A80070031A430A62FFF7D9FD12498B69C3F324
:1017B8000323114AD35C03F01F03D8408B6903F05D
:1017C8000F03D35C03F01F0320FA03F30B4A1360E3
:1017D8000B4B18600B4B1868FFF724F970BD0120FC
:1017E80070470120FAE70120F8E70120F6E700BF7B
:1017F8000020005200440258F41900080400002494
:10180800000000240C00002470B50D4E0D4D761B11
:10181800B61006D0002455F8043B01349847A64278
:10182800F9D1094E094D761B00F0D4F8B61006D050
:10183800002455F8043B01349847A642F9D170BDFD
:10184800081A0008081A0008101A0008081A0008E0
:10185800830730B548D0541E002A3FD0CAB2034689
:1018680001E0013C3AD303F8012B9D07F9D1032C81
:101878002DD9CDB245EA05250F2C45EA054536D9BF
:10188800A4F1100222F00F0C03F1200EE6444FEAF7
:10189800121C03F1100242E9045542E902551032C4
:1018A8007245F8D10CF1010214F00C0F03EB02128F
:1018B80004F00F0C13D0ACF1040323F0030304333A
:1018C800134442F8045B9342FBD10CF003042CB19F
:1018D800CAB21C4403F8012B9C42FBD130BD6446BC
:1018E8001346002CF4D1F9E703461446BFE71A461D
:1018F800A446E0E7024B13B1024800F005B8704770
:10190800000000001D190008002301461A46184669
:1019180000F01AB838B5084B084D5B1B9C1007D06F
:10192800043B1D44013C55F804399847002CF9D173
:10193800BDE8384000F054B8141A0008101A00081E
:10194800704700BF704700BF2DE9F047DFF87CA063
:101958000646DAF8000098460F469146FFF7F0FF72
:101968001B4B1B68D3F8484124B365681F2D26DC40
:101978005EB96B1C0235DAF80000636044F8257024
:10198800FFF7E0FF0020BDE8F08704EB85010123A5
:10199800C1F88890D4F88821AB401A43022EC4F8C5
:1019A8008821C1F80881E4D1D4F88C211343C4F804
:1019B8008C31DEE703F5A674C3F84841D5E7DAF8B9
:1019C8000000FFF7BFFF4FF0FF30DCE738040024CA
:1019D800041A0008F8B500BFF8BC08BC9E4670475A
:0C19E800F8B500BFF8BC08BC9E46704774
:1019F40000000000010203040102030406070809B1
:041A040010000024AA
:081A0800FD180008BD020008F2
:041A1000990200082F
:101A14000090D0030090D0030100000010000000EB
:101A240000000000FC02002464030024CC03002412
:101A340000000000000000000000000000000000A2
:101A44000000000000000000000000000000000092
:101A54000000000000000000000000000000000082
:101A64000000000000000000000000000000000072
:101A74000000000000000000000000000000000062
:101A84000000000000000000000000000000000052
:101A94000000000000000000000000000000000042
:101AA4000000000000000000000000000000000032
:101AB4000000000000000000000000000000000022
:101AC4000000000000000000010000000000000011
:101AD4000E33CDAB34126DE6ECDE05000B000000D6
:101AE40000000000000000000000000000000000F2
:101AF40000000000000000000000000000000000E2
:101B040000000000000000000000000000000000D1
:101B140000000000000000000000000000000000C1
:0C1E440000000000000000005C0400240E
:04000005080009D90D
:00000001FF
